{
  "_format": "hh-sol-artifact-1",
  "contractName": "KryptoPunks",
  "sourceName": "contracts/KryptoPunks.sol",
  "abi": [
    {
      "inputs": [
        {
          "internalType": "uint256",
          "name": "_maxSupply",
          "type": "uint256"
        },
        {
          "internalType": "uint256",
          "name": "_cost",
          "type": "uint256"
        },
        {
          "internalType": "uint256",
          "name": "_maxMintAmountPerTx",
          "type": "uint256"
        }
      ],
      "stateMutability": "nonpayable",
      "type": "constructor"
    },
    {
      "inputs": [],
      "name": "KryptoPunks__ContractIsPaused",
      "type": "error"
    },
    {
      "inputs": [],
      "name": "KryptoPunks__InsufficientFunds",
      "type": "error"
    },
    {
      "inputs": [],
      "name": "KryptoPunks__InvalidMintAmount",
      "type": "error"
    },
    {
      "inputs": [],
      "name": "KryptoPunks__MaxMintAmountExceeded",
      "type": "error"
    },
    {
      "inputs": [],
      "name": "KryptoPunks__NftSupplyLimitExceeded",
      "type": "error"
    },
    {
      "inputs": [],
      "name": "KryptoPunks__QueryForNonExistentToken",
      "type": "error"
    },
    {
      "anonymous": false,
      "inputs": [
        {
          "indexed": true,
          "internalType": "address",
          "name": "owner",
          "type": "address"
        },
        {
          "indexed": true,
          "internalType": "address",
          "name": "approved",
          "type": "address"
        },
        {
          "indexed": true,
          "internalType": "uint256",
          "name": "tokenId",
          "type": "uint256"
        }
      ],
      "name": "Approval",
      "type": "event"
    },
    {
      "anonymous": false,
      "inputs": [
        {
          "indexed": true,
          "internalType": "address",
          "name": "owner",
          "type": "address"
        },
        {
          "indexed": true,
          "internalType": "address",
          "name": "operator",
          "type": "address"
        },
        {
          "indexed": false,
          "internalType": "bool",
          "name": "approved",
          "type": "bool"
        }
      ],
      "name": "ApprovalForAll",
      "type": "event"
    },
    {
      "anonymous": false,
      "inputs": [
        {
          "indexed": true,
          "internalType": "address",
          "name": "previousOwner",
          "type": "address"
        },
        {
          "indexed": true,
          "internalType": "address",
          "name": "newOwner",
          "type": "address"
        }
      ],
      "name": "OwnershipTransferred",
      "type": "event"
    },
    {
      "anonymous": false,
      "inputs": [
        {
          "indexed": true,
          "internalType": "address",
          "name": "from",
          "type": "address"
        },
        {
          "indexed": true,
          "internalType": "address",
          "name": "to",
          "type": "address"
        },
        {
          "indexed": true,
          "internalType": "uint256",
          "name": "tokenId",
          "type": "uint256"
        }
      ],
      "name": "Transfer",
      "type": "event"
    },
    {
      "inputs": [
        {
          "internalType": "address",
          "name": "to",
          "type": "address"
        },
        {
          "internalType": "uint256",
          "name": "tokenId",
          "type": "uint256"
        }
      ],
      "name": "approve",
      "outputs": [],
      "stateMutability": "nonpayable",
      "type": "function"
    },
    {
      "inputs": [
        {
          "internalType": "address",
          "name": "owner",
          "type": "address"
        }
      ],
      "name": "balanceOf",
      "outputs": [
        {
          "internalType": "uint256",
          "name": "",
          "type": "uint256"
        }
      ],
      "stateMutability": "view",
      "type": "function"
    },
    {
      "inputs": [],
      "name": "baseExtension",
      "outputs": [
        {
          "internalType": "string",
          "name": "",
          "type": "string"
        }
      ],
      "stateMutability": "view",
      "type": "function"
    },
    {
      "inputs": [],
      "name": "baseURI",
      "outputs": [
        {
          "internalType": "string",
          "name": "",
          "type": "string"
        }
      ],
      "stateMutability": "view",
      "type": "function"
    },
    {
      "inputs": [],
      "name": "cost",
      "outputs": [
        {
          "internalType": "uint256",
          "name": "",
          "type": "uint256"
        }
      ],
      "stateMutability": "view",
      "type": "function"
    },
    {
      "inputs": [
        {
          "internalType": "uint256",
          "name": "tokenId",
          "type": "uint256"
        }
      ],
      "name": "getApproved",
      "outputs": [
        {
          "internalType": "address",
          "name": "",
          "type": "address"
        }
      ],
      "stateMutability": "view",
      "type": "function"
    },
    {
      "inputs": [
        {
          "internalType": "address",
          "name": "owner",
          "type": "address"
        },
        {
          "internalType": "address",
          "name": "operator",
          "type": "address"
        }
      ],
      "name": "isApprovedForAll",
      "outputs": [
        {
          "internalType": "bool",
          "name": "",
          "type": "bool"
        }
      ],
      "stateMutability": "view",
      "type": "function"
    },
    {
      "inputs": [],
      "name": "maxMintAmountPerTx",
      "outputs": [
        {
          "internalType": "uint256",
          "name": "",
          "type": "uint256"
        }
      ],
      "stateMutability": "view",
      "type": "function"
    },
    {
      "inputs": [],
      "name": "maxSupply",
      "outputs": [
        {
          "internalType": "uint256",
          "name": "",
          "type": "uint256"
        }
      ],
      "stateMutability": "view",
      "type": "function"
    },
    {
      "inputs": [
        {
          "internalType": "uint256",
          "name": "_mintAmount",
          "type": "uint256"
        }
      ],
      "name": "mint",
      "outputs": [],
      "stateMutability": "payable",
      "type": "function"
    },
    {
      "inputs": [],
      "name": "name",
      "outputs": [
        {
          "internalType": "string",
          "name": "",
          "type": "string"
        }
      ],
      "stateMutability": "view",
      "type": "function"
    },
    {
      "inputs": [],
      "name": "owner",
      "outputs": [
        {
          "internalType": "address",
          "name": "",
          "type": "address"
        }
      ],
      "stateMutability": "view",
      "type": "function"
    },
    {
      "inputs": [
        {
          "internalType": "uint256",
          "name": "tokenId",
          "type": "uint256"
        }
      ],
      "name": "ownerOf",
      "outputs": [
        {
          "internalType": "address",
          "name": "",
          "type": "address"
        }
      ],
      "stateMutability": "view",
      "type": "function"
    },
    {
      "inputs": [
        {
          "internalType": "uint256",
          "name": "_state",
          "type": "uint256"
        }
      ],
      "name": "pause",
      "outputs": [],
      "stateMutability": "payable",
      "type": "function"
    },
    {
      "inputs": [],
      "name": "paused",
      "outputs": [
        {
          "internalType": "uint256",
          "name": "",
          "type": "uint256"
        }
      ],
      "stateMutability": "view",
      "type": "function"
    },
    {
      "inputs": [],
      "name": "renounceOwnership",
      "outputs": [],
      "stateMutability": "nonpayable",
      "type": "function"
    },
    {
      "inputs": [
        {
          "internalType": "address",
          "name": "from",
          "type": "address"
        },
        {
          "internalType": "address",
          "name": "to",
          "type": "address"
        },
        {
          "internalType": "uint256",
          "name": "tokenId",
          "type": "uint256"
        }
      ],
      "name": "safeTransferFrom",
      "outputs": [],
      "stateMutability": "nonpayable",
      "type": "function"
    },
    {
      "inputs": [
        {
          "internalType": "address",
          "name": "from",
          "type": "address"
        },
        {
          "internalType": "address",
          "name": "to",
          "type": "address"
        },
        {
          "internalType": "uint256",
          "name": "tokenId",
          "type": "uint256"
        },
        {
          "internalType": "bytes",
          "name": "data",
          "type": "bytes"
        }
      ],
      "name": "safeTransferFrom",
      "outputs": [],
      "stateMutability": "nonpayable",
      "type": "function"
    },
    {
      "inputs": [
        {
          "internalType": "address",
          "name": "operator",
          "type": "address"
        },
        {
          "internalType": "bool",
          "name": "approved",
          "type": "bool"
        }
      ],
      "name": "setApprovalForAll",
      "outputs": [],
      "stateMutability": "nonpayable",
      "type": "function"
    },
    {
      "inputs": [
        {
          "internalType": "string",
          "name": "_newBaseURI",
          "type": "string"
        }
      ],
      "name": "setBaseURI",
      "outputs": [],
      "stateMutability": "payable",
      "type": "function"
    },
    {
      "inputs": [
        {
          "internalType": "uint256",
          "name": "_newCost",
          "type": "uint256"
        }
      ],
      "name": "setCost",
      "outputs": [],
      "stateMutability": "payable",
      "type": "function"
    },
    {
      "inputs": [
        {
          "internalType": "uint256",
          "name": "_newmaxMintAmount",
          "type": "uint256"
        }
      ],
      "name": "setMaxMintAmountPerTx",
      "outputs": [],
      "stateMutability": "payable",
      "type": "function"
    },
    {
      "inputs": [
        {
          "internalType": "bytes4",
          "name": "interfaceId",
          "type": "bytes4"
        }
      ],
      "name": "supportsInterface",
      "outputs": [
        {
          "internalType": "bool",
          "name": "",
          "type": "bool"
        }
      ],
      "stateMutability": "view",
      "type": "function"
    },
    {
      "inputs": [],
      "name": "symbol",
      "outputs": [
        {
          "internalType": "string",
          "name": "",
          "type": "string"
        }
      ],
      "stateMutability": "view",
      "type": "function"
    },
    {
      "inputs": [
        {
          "internalType": "uint256",
          "name": "index",
          "type": "uint256"
        }
      ],
      "name": "tokenByIndex",
      "outputs": [
        {
          "internalType": "uint256",
          "name": "",
          "type": "uint256"
        }
      ],
      "stateMutability": "view",
      "type": "function"
    },
    {
      "inputs": [
        {
          "internalType": "address",
          "name": "owner",
          "type": "address"
        },
        {
          "internalType": "uint256",
          "name": "index",
          "type": "uint256"
        }
      ],
      "name": "tokenOfOwnerByIndex",
      "outputs": [
        {
          "internalType": "uint256",
          "name": "",
          "type": "uint256"
        }
      ],
      "stateMutability": "view",
      "type": "function"
    },
    {
      "inputs": [
        {
          "internalType": "uint256",
          "name": "tokenId",
          "type": "uint256"
        }
      ],
      "name": "tokenURI",
      "outputs": [
        {
          "internalType": "string",
          "name": "",
          "type": "string"
        }
      ],
      "stateMutability": "view",
      "type": "function"
    },
    {
      "inputs": [],
      "name": "totalSupply",
      "outputs": [
        {
          "internalType": "uint256",
          "name": "",
          "type": "uint256"
        }
      ],
      "stateMutability": "view",
      "type": "function"
    },
    {
      "inputs": [
        {
          "internalType": "address",
          "name": "from",
          "type": "address"
        },
        {
          "internalType": "address",
          "name": "to",
          "type": "address"
        },
        {
          "internalType": "uint256",
          "name": "tokenId",
          "type": "uint256"
        }
      ],
      "name": "transferFrom",
      "outputs": [],
      "stateMutability": "nonpayable",
      "type": "function"
    },
    {
      "inputs": [
        {
          "internalType": "address",
          "name": "newOwner",
          "type": "address"
        }
      ],
      "name": "transferOwnership",
      "outputs": [],
      "stateMutability": "nonpayable",
      "type": "function"
    },
    {
      "inputs": [
        {
          "internalType": "address",
          "name": "_owner",
          "type": "address"
        }
      ],
      "name": "walletOfOwner",
      "outputs": [
        {
          "internalType": "uint256[]",
          "name": "",
          "type": "uint256[]"
        }
      ],
      "stateMutability": "view",
      "type": "function"
    },
    {
      "inputs": [],
      "name": "withdraw",
      "outputs": [],
      "stateMutability": "payable",
      "type": "function"
    }
  ],
  "bytecode": "0x60806040526001600f553480156200001657600080fd5b5060405162003f3d38038062003f3d83398181016040528101906200003c9190620002af565b6040518060400160405280601881526020017f4b727970746f2050756e6b7320436f6c6c65637469626c6500000000000000008152506040518060400160405280600381526020017f4b504300000000000000000000000000000000000000000000000000000000008152508160009080519060200190620000c0929190620001e8565b508060019080519060200190620000d9929190620001e8565b505050620000fc620000f06200011a60201b60201c565b6200012260201b60201c565b81600c8190555080600e8190555082600d8190555050505062000399565b600033905090565b6000600a60009054906101000a900473ffffffffffffffffffffffffffffffffffffffff16905081600a60006101000a81548173ffffffffffffffffffffffffffffffffffffffff021916908373ffffffffffffffffffffffffffffffffffffffff1602179055508173ffffffffffffffffffffffffffffffffffffffff168173ffffffffffffffffffffffffffffffffffffffff167f8be0079c531659141344cd1fd0a4f28419497f9722a3daafe3b4186f6b6457e060405160405180910390a35050565b828054620001f69062000315565b90600052602060002090601f0160209004810192826200021a576000855562000266565b82601f106200023557805160ff191683800117855562000266565b8280016001018555821562000266579182015b828111156200026557825182559160200191906001019062000248565b5b50905062000275919062000279565b5090565b5b80821115620002945760008160009055506001016200027a565b5090565b600081519050620002a9816200037f565b92915050565b600080600060608486031215620002cb57620002ca6200037a565b5b6000620002db8682870162000298565b9350506020620002ee8682870162000298565b9250506040620003018682870162000298565b9150509250925092565b6000819050919050565b600060028204905060018216806200032e57607f821691505b602082108114156200034557620003446200034b565b5b50919050565b7f4e487b7100000000000000000000000000000000000000000000000000000000600052602260045260246000fd5b600080fd5b6200038a816200030b565b81146200039657600080fd5b50565b613b9480620003a96000396000f3fe6080604052600436106101e35760003560e01c80636352211e11610102578063a22cb46511610095578063c87b56dd11610064578063c87b56dd14610690578063d5abeb01146106cd578063e985e9c5146106f8578063f2fde38b14610735576101e3565b8063a22cb465146105f7578063b071401b14610620578063b88d4fde1461063c578063c668286214610665576101e3565b80638da5cb5b116100d15780638da5cb5b1461055a57806394354fd01461058557806395d89b41146105b0578063a0712d68146105db576101e3565b80636352211e1461049e5780636c0360eb146104db57806370a0823114610506578063715018a614610543576101e3565b80632f745c591161017a57806344a0d68a1161014957806344a0d68a146103fe5780634f6ccce71461041a57806355f804b3146104575780635c975abb14610473576101e3565b80632f745c59146103515780633ccfd60b1461038e57806342842e0e14610398578063438b6300146103c1576101e3565b8063136439dd116101b6578063136439dd146102b657806313faede6146102d257806318160ddd146102fd57806323b872dd14610328576101e3565b806301ffc9a7146101e857806306fdde0314610225578063081812fc14610250578063095ea7b31461028d575b600080fd5b3480156101f457600080fd5b5061020f600480360381019061020a9190612acb565b61075e565b60405161021c9190612fef565b60405180910390f35b34801561023157600080fd5b5061023a6107d8565b604051610247919061300a565b60405180910390f35b34801561025c57600080fd5b5061027760048036038101906102729190612b6e565b61086a565b6040516102849190612f66565b60405180910390f35b34801561029957600080fd5b506102b460048036038101906102af9190612a8b565b6108b0565b005b6102d060048036038101906102cb9190612b6e565b6109c8565b005b3480156102de57600080fd5b506102e76109da565b6040516102f4919061320c565b60405180910390f35b34801561030957600080fd5b506103126109e0565b60405161031f919061320c565b60405180910390f35b34801561033457600080fd5b5061034f600480360381019061034a9190612975565b6109ed565b005b34801561035d57600080fd5b5061037860048036038101906103739190612a8b565b610a4d565b604051610385919061320c565b60405180910390f35b610396610af2565b005b3480156103a457600080fd5b506103bf60048036038101906103ba9190612975565b610b7a565b005b3480156103cd57600080fd5b506103e860048036038101906103e39190612908565b610b9a565b6040516103f59190612fcd565b60405180910390f35b61041860048036038101906104139190612b6e565b610c40565b005b34801561042657600080fd5b50610441600480360381019061043c9190612b6e565b610c52565b60405161044e919061320c565b60405180910390f35b610471600480360381019061046c9190612b25565b610cc3565b005b34801561047f57600080fd5b50610488610ce5565b604051610495919061320c565b60405180910390f35b3480156104aa57600080fd5b506104c560048036038101906104c09190612b6e565b610ceb565b6040516104d29190612f66565b60405180910390f35b3480156104e757600080fd5b506104f0610d9d565b6040516104fd919061300a565b60405180910390f35b34801561051257600080fd5b5061052d60048036038101906105289190612908565b610e2b565b60405161053a919061320c565b60405180910390f35b34801561054f57600080fd5b50610558610ee3565b005b34801561056657600080fd5b5061056f610ef7565b60405161057c9190612f66565b60405180910390f35b34801561059157600080fd5b5061059a610f21565b6040516105a7919061320c565b60405180910390f35b3480156105bc57600080fd5b506105c5610f27565b6040516105d2919061300a565b60405180910390f35b6105f560048036038101906105f09190612b6e565b610fb9565b005b34801561060357600080fd5b5061061e60048036038101906106199190612a4b565b611175565b005b61063a60048036038101906106359190612b6e565b61118b565b005b34801561064857600080fd5b50610663600480360381019061065e91906129c8565b61119d565b005b34801561067157600080fd5b5061067a6111ff565b604051610687919061300a565b60405180910390f35b34801561069c57600080fd5b506106b760048036038101906106b29190612b6e565b611238565b6040516106c4919061300a565b60405180910390f35b3480156106d957600080fd5b506106e261130d565b6040516106ef919061320c565b60405180910390f35b34801561070457600080fd5b5061071f600480360381019061071a9190612935565b611313565b60405161072c9190612fef565b60405180910390f35b34801561074157600080fd5b5061075c60048036038101906107579190612908565b6113a7565b005b60007f780e9d63000000000000000000000000000000000000000000000000000000007bffffffffffffffffffffffffffffffffffffffffffffffffffffffff1916827bffffffffffffffffffffffffffffffffffffffffffffffffffffffff191614806107d157506107d08261142b565b5b9050919050565b6060600080546107e790613500565b80601f016020809104026020016040519081016040528092919081815260200182805461081390613500565b80156108605780601f1061083557610100808354040283529160200191610860565b820191906000526020600020905b81548152906001019060200180831161084357829003601f168201915b5050505050905090565b60006108758261150d565b6004600083815260200190815260200160002060009054906101000a900473ffffffffffffffffffffffffffffffffffffffff169050919050565b60006108bb82610ceb565b90508073ffffffffffffffffffffffffffffffffffffffff168373ffffffffffffffffffffffffffffffffffffffff16141561092c576040517f08c379a0000000000000000000000000000000000000000000000000000000008152600401610923906131ac565b60405180910390fd5b8073ffffffffffffffffffffffffffffffffffffffff1661094b611558565b73ffffffffffffffffffffffffffffffffffffffff16148061097a575061097981610974611558565b611313565b5b6109b9576040517f08c379a00000000000000000000000000000000000000000000000000000000081526004016109b09061312c565b60405180910390fd5b6109c38383611560565b505050565b6109d0611619565b80600f8190555050565b600c5481565b6000600880549050905090565b6109fe6109f8611558565b82611697565b610a3d576040517f08c379a0000000000000000000000000000000000000000000000000000000008152600401610a34906131ec565b60405180910390fd5b610a4883838361172c565b505050565b6000610a5883610e2b565b8210610a99576040517f08c379a0000000000000000000000000000000000000000000000000000000008152600401610a909061302c565b60405180910390fd5b600660008473ffffffffffffffffffffffffffffffffffffffff1673ffffffffffffffffffffffffffffffffffffffff168152602001908152602001600020600083815260200190815260200160002054905092915050565b610afa611619565b6000610b04610ef7565b73ffffffffffffffffffffffffffffffffffffffff1647604051610b2790612f51565b60006040518083038185875af1925050503d8060008114610b64576040519150601f19603f3d011682016040523d82523d6000602084013e610b69565b606091505b5050905080610b7757600080fd5b50565b610b958383836040518060200160405280600081525061119d565b505050565b60606000610ba783610e2b565b905060008167ffffffffffffffff811115610bc557610bc46136c8565b5b604051908082528060200260200182016040528015610bf35781602001602082028036833780820191505090505b50905060005b82811015610c3557610c0b8582610a4d565b828281518110610c1e57610c1d613699565b5b602002602001018181525050806001019050610bf9565b508092505050919050565b610c48611619565b80600c8190555050565b6000610c5c6109e0565b8210610c9d576040517f08c379a0000000000000000000000000000000000000000000000000000000008152600401610c94906131cc565b60405180910390fd5b60088281548110610cb157610cb0613699565b5b90600052602060002001549050919050565b610ccb611619565b80600b9080519060200190610ce192919061271c565b5050565b600f5481565b6000806002600084815260200190815260200160002060009054906101000a900473ffffffffffffffffffffffffffffffffffffffff169050600073ffffffffffffffffffffffffffffffffffffffff168173ffffffffffffffffffffffffffffffffffffffff161415610d94576040517f08c379a0000000000000000000000000000000000000000000000000000000008152600401610d8b9061318c565b60405180910390fd5b80915050919050565b600b8054610daa90613500565b80601f0160208091040260200160405190810160405280929190818152602001828054610dd690613500565b8015610e235780601f10610df857610100808354040283529160200191610e23565b820191906000526020600020905b815481529060010190602001808311610e0657829003601f168201915b505050505081565b60008073ffffffffffffffffffffffffffffffffffffffff168273ffffffffffffffffffffffffffffffffffffffff161415610e9c576040517f08c379a0000000000000000000000000000000000000000000000000000000008152600401610e939061310c565b60405180910390fd5b600360008373ffffffffffffffffffffffffffffffffffffffff1673ffffffffffffffffffffffffffffffffffffffff168152602001908152602001600020549050919050565b610eeb611619565b610ef56000611993565b565b6000600a60009054906101000a900473ffffffffffffffffffffffffffffffffffffffff16905090565b600e5481565b606060018054610f3690613500565b80601f0160208091040260200160405190810160405280929190818152602001828054610f6290613500565b8015610faf5780601f10610f8457610100808354040283529160200191610faf565b820191906000526020600020905b815481529060010190602001808311610f9257829003601f168201915b5050505050905090565b6001600f541415610ff6576040517f28d729c100000000000000000000000000000000000000000000000000000000815260040160405180910390fd5b6000811415611031576040517f9ff6d75900000000000000000000000000000000000000000000000000000000815260040160405180910390fd5b600e5481111561106d576040517f25fb47d200000000000000000000000000000000000000000000000000000000815260040160405180910390fd5b60006110776109e0565b9050600d5482826110889190613335565b11156110c0576040517f96bd0f2300000000000000000000000000000000000000000000000000000000815260040160405180910390fd5b6110c8610ef7565b73ffffffffffffffffffffffffffffffffffffffff163373ffffffffffffffffffffffffffffffffffffffff16146111425781600c5461110891906133bc565b341015611141576040517f45bd468900000000000000000000000000000000000000000000000000000000815260040160405180910390fd5b5b6000600190505b828111611170576111653382846111609190613335565b611a59565b806001019050611149565b505050565b611187611180611558565b8383611a77565b5050565b611193611619565b80600e8190555050565b6111ae6111a8611558565b83611697565b6111ed576040517f08c379a00000000000000000000000000000000000000000000000000000000081526004016111e4906131ec565b60405180910390fd5b6111f984848484611be4565b50505050565b6040518060400160405280600581526020017f2e6a736f6e00000000000000000000000000000000000000000000000000000081525081565b606061124382611c40565b611279576040517f77b1a4e000000000000000000000000000000000000000000000000000000000815260040160405180910390fd5b6000611283611cac565b905060008151116112a35760405180602001604052806000815250611305565b806112ad84611d3e565b6040518060400160405280600581526020017f2e6a736f6e0000000000000000000000000000000000000000000000000000008152506040516020016112f593929190612f20565b6040516020818303038152906040525b915050919050565b600d5481565b6000600560008473ffffffffffffffffffffffffffffffffffffffff1673ffffffffffffffffffffffffffffffffffffffff16815260200190815260200160002060008373ffffffffffffffffffffffffffffffffffffffff1673ffffffffffffffffffffffffffffffffffffffff16815260200190815260200160002060009054906101000a900460ff16905092915050565b6113af611619565b600073ffffffffffffffffffffffffffffffffffffffff168173ffffffffffffffffffffffffffffffffffffffff16141561141f576040517f08c379a00000000000000000000000000000000000000000000000000000000081526004016114169061306c565b60405180910390fd5b61142881611993565b50565b60007f80ac58cd000000000000000000000000000000000000000000000000000000007bffffffffffffffffffffffffffffffffffffffffffffffffffffffff1916827bffffffffffffffffffffffffffffffffffffffffffffffffffffffff191614806114f657507f5b5e139f000000000000000000000000000000000000000000000000000000007bffffffffffffffffffffffffffffffffffffffffffffffffffffffff1916827bffffffffffffffffffffffffffffffffffffffffffffffffffffffff1916145b80611506575061150582611e9f565b5b9050919050565b61151681611c40565b611555576040517f08c379a000000000000000000000000000000000000000000000000000000000815260040161154c9061318c565b60405180910390fd5b50565b600033905090565b816004600083815260200190815260200160002060006101000a81548173ffffffffffffffffffffffffffffffffffffffff021916908373ffffffffffffffffffffffffffffffffffffffff160217905550808273ffffffffffffffffffffffffffffffffffffffff166115d383610ceb565b73ffffffffffffffffffffffffffffffffffffffff167f8c5be1e5ebec7d5bd14f71427d1e84f3dd0314c0f7b2291e5b200ac8c7c3b92560405160405180910390a45050565b611621611558565b73ffffffffffffffffffffffffffffffffffffffff1661163f610ef7565b73ffffffffffffffffffffffffffffffffffffffff1614611695576040517f08c379a000000000000000000000000000000000000000000000000000000000815260040161168c9061316c565b60405180910390fd5b565b6000806116a383610ceb565b90508073ffffffffffffffffffffffffffffffffffffffff168473ffffffffffffffffffffffffffffffffffffffff1614806116e557506116e48185611313565b5b8061172357508373ffffffffffffffffffffffffffffffffffffffff1661170b8461086a565b73ffffffffffffffffffffffffffffffffffffffff16145b91505092915050565b8273ffffffffffffffffffffffffffffffffffffffff1661174c82610ceb565b73ffffffffffffffffffffffffffffffffffffffff16146117a2576040517f08c379a00000000000000000000000000000000000000000000000000000000081526004016117999061308c565b60405180910390fd5b600073ffffffffffffffffffffffffffffffffffffffff168273ffffffffffffffffffffffffffffffffffffffff161415611812576040517f08c379a0000000000000000000000000000000000000000000000000000000008152600401611809906130cc565b60405180910390fd5b61181d838383611f09565b611828600082611560565b6001600360008573ffffffffffffffffffffffffffffffffffffffff1673ffffffffffffffffffffffffffffffffffffffff16815260200190815260200160002060008282546118789190613416565b925050819055506001600360008473ffffffffffffffffffffffffffffffffffffffff1673ffffffffffffffffffffffffffffffffffffffff16815260200190815260200160002060008282546118cf9190613335565b92505081905550816002600083815260200190815260200160002060006101000a81548173ffffffffffffffffffffffffffffffffffffffff021916908373ffffffffffffffffffffffffffffffffffffffff160217905550808273ffffffffffffffffffffffffffffffffffffffff168473ffffffffffffffffffffffffffffffffffffffff167fddf252ad1be2c89b69c2b068fc378daa952ba7f163c4a11628f55a4df523b3ef60405160405180910390a461198e83838361201d565b505050565b6000600a60009054906101000a900473ffffffffffffffffffffffffffffffffffffffff16905081600a60006101000a81548173ffffffffffffffffffffffffffffffffffffffff021916908373ffffffffffffffffffffffffffffffffffffffff1602179055508173ffffffffffffffffffffffffffffffffffffffff168173ffffffffffffffffffffffffffffffffffffffff167f8be0079c531659141344cd1fd0a4f28419497f9722a3daafe3b4186f6b6457e060405160405180910390a35050565b611a73828260405180602001604052806000815250612022565b5050565b8173ffffffffffffffffffffffffffffffffffffffff168373ffffffffffffffffffffffffffffffffffffffff161415611ae6576040517f08c379a0000000000000000000000000000000000000000000000000000000008152600401611add906130ec565b60405180910390fd5b80600560008573ffffffffffffffffffffffffffffffffffffffff1673ffffffffffffffffffffffffffffffffffffffff16815260200190815260200160002060008473ffffffffffffffffffffffffffffffffffffffff1673ffffffffffffffffffffffffffffffffffffffff16815260200190815260200160002060006101000a81548160ff0219169083151502179055508173ffffffffffffffffffffffffffffffffffffffff168373ffffffffffffffffffffffffffffffffffffffff167f17307eab39ab6107e8899845ad3d59bd9653f200f220920489ca2b5937696c3183604051611bd79190612fef565b60405180910390a3505050565b611bef84848461172c565b611bfb8484848461207d565b611c3a576040517f08c379a0000000000000000000000000000000000000000000000000000000008152600401611c319061304c565b60405180910390fd5b50505050565b60008073ffffffffffffffffffffffffffffffffffffffff166002600084815260200190815260200160002060009054906101000a900473ffffffffffffffffffffffffffffffffffffffff1673ffffffffffffffffffffffffffffffffffffffff1614159050919050565b6060600b8054611cbb90613500565b80601f0160208091040260200160405190810160405280929190818152602001828054611ce790613500565b8015611d345780601f10611d0957610100808354040283529160200191611d34565b820191906000526020600020905b815481529060010190602001808311611d1757829003601f168201915b5050505050905090565b60606000821415611d86576040518060400160405280600181526020017f30000000000000000000000000000000000000000000000000000000000000008152509050611e9a565b600082905060005b60008214611db8578080611da190613563565b915050600a82611db1919061338b565b9150611d8e565b60008167ffffffffffffffff811115611dd457611dd36136c8565b5b6040519080825280601f01601f191660200182016040528015611e065781602001600182028036833780820191505090505b5090505b60008514611e9357600182611e1f9190613416565b9150600a85611e2e91906135ac565b6030611e3a9190613335565b60f81b818381518110611e5057611e4f613699565b5b60200101907effffffffffffffffffffffffffffffffffffffffffffffffffffffffffffff1916908160001a905350600a85611e8c919061338b565b9450611e0a565b8093505050505b919050565b60007f01ffc9a7000000000000000000000000000000000000000000000000000000007bffffffffffffffffffffffffffffffffffffffffffffffffffffffff1916827bffffffffffffffffffffffffffffffffffffffffffffffffffffffff1916149050919050565b611f14838383612214565b600073ffffffffffffffffffffffffffffffffffffffff168373ffffffffffffffffffffffffffffffffffffffff161415611f5757611f5281612219565b611f96565b8173ffffffffffffffffffffffffffffffffffffffff168373ffffffffffffffffffffffffffffffffffffffff1614611f9557611f948382612262565b5b5b600073ffffffffffffffffffffffffffffffffffffffff168273ffffffffffffffffffffffffffffffffffffffff161415611fd957611fd4816123cf565b612018565b8273ffffffffffffffffffffffffffffffffffffffff168273ffffffffffffffffffffffffffffffffffffffff16146120175761201682826124a0565b5b5b505050565b505050565b61202c838361251f565b612039600084848461207d565b612078576040517f08c379a000000000000000000000000000000000000000000000000000000000815260040161206f9061304c565b60405180910390fd5b505050565b600061209e8473ffffffffffffffffffffffffffffffffffffffff166126f9565b15612207578373ffffffffffffffffffffffffffffffffffffffff1663150b7a026120c7611558565b8786866040518563ffffffff1660e01b81526004016120e99493929190612f81565b602060405180830381600087803b15801561210357600080fd5b505af192505050801561213457506040513d601f19601f820116820180604052508101906121319190612af8565b60015b6121b7573d8060008114612164576040519150601f19603f3d011682016040523d82523d6000602084013e612169565b606091505b506000815114156121af576040517f08c379a00000000000000000000000000000000000000000000000000000000081526004016121a69061304c565b60405180910390fd5b805181602001fd5b63150b7a0260e01b7bffffffffffffffffffffffffffffffffffffffffffffffffffffffff1916817bffffffffffffffffffffffffffffffffffffffffffffffffffffffff19161491505061220c565b600190505b949350505050565b505050565b6008805490506009600083815260200190815260200160002081905550600881908060018154018082558091505060019003906000526020600020016000909190919091505550565b6000600161226f84610e2b565b6122799190613416565b905060006007600084815260200190815260200160002054905081811461235e576000600660008673ffffffffffffffffffffffffffffffffffffffff1673ffffffffffffffffffffffffffffffffffffffff168152602001908152602001600020600084815260200190815260200160002054905080600660008773ffffffffffffffffffffffffffffffffffffffff1673ffffffffffffffffffffffffffffffffffffffff168152602001908152602001600020600084815260200190815260200160002081905550816007600083815260200190815260200160002081905550505b6007600084815260200190815260200160002060009055600660008573ffffffffffffffffffffffffffffffffffffffff1673ffffffffffffffffffffffffffffffffffffffff16815260200190815260200160002060008381526020019081526020016000206000905550505050565b600060016008805490506123e39190613416565b905060006009600084815260200190815260200160002054905060006008838154811061241357612412613699565b5b90600052602060002001549050806008838154811061243557612434613699565b5b9060005260206000200181905550816009600083815260200190815260200160002081905550600960008581526020019081526020016000206000905560088054806124845761248361366a565b5b6001900381819060005260206000200160009055905550505050565b60006124ab83610e2b565b905081600660008573ffffffffffffffffffffffffffffffffffffffff1673ffffffffffffffffffffffffffffffffffffffff168152602001908152602001600020600083815260200190815260200160002081905550806007600084815260200190815260200160002081905550505050565b600073ffffffffffffffffffffffffffffffffffffffff168273ffffffffffffffffffffffffffffffffffffffff16141561258f576040517f08c379a00000000000000000000000000000000000000000000000000000000081526004016125869061314c565b60405180910390fd5b61259881611c40565b156125d8576040517f08c379a00000000000000000000000000000000000000000000000000000000081526004016125cf906130ac565b60405180910390fd5b6125e460008383611f09565b6001600360008473ffffffffffffffffffffffffffffffffffffffff1673ffffffffffffffffffffffffffffffffffffffff16815260200190815260200160002060008282546126349190613335565b92505081905550816002600083815260200190815260200160002060006101000a81548173ffffffffffffffffffffffffffffffffffffffff021916908373ffffffffffffffffffffffffffffffffffffffff160217905550808273ffffffffffffffffffffffffffffffffffffffff16600073ffffffffffffffffffffffffffffffffffffffff167fddf252ad1be2c89b69c2b068fc378daa952ba7f163c4a11628f55a4df523b3ef60405160405180910390a46126f56000838361201d565b5050565b6000808273ffffffffffffffffffffffffffffffffffffffff163b119050919050565b82805461272890613500565b90600052602060002090601f01602090048101928261274a5760008555612791565b82601f1061276357805160ff1916838001178555612791565b82800160010185558215612791579182015b82811115612790578251825591602001919060010190612775565b5b50905061279e91906127a2565b5090565b5b808211156127bb5760008160009055506001016127a3565b5090565b60006127d26127cd8461324c565b613227565b9050828152602081018484840111156127ee576127ed6136fc565b5b6127f98482856134be565b509392505050565b600061281461280f8461327d565b613227565b9050828152602081018484840111156128305761282f6136fc565b5b61283b8482856134be565b509392505050565b60008135905061285281613b02565b92915050565b60008135905061286781613b19565b92915050565b60008135905061287c81613b30565b92915050565b60008151905061289181613b30565b92915050565b600082601f8301126128ac576128ab6136f7565b5b81356128bc8482602086016127bf565b91505092915050565b600082601f8301126128da576128d96136f7565b5b81356128ea848260208601612801565b91505092915050565b60008135905061290281613b47565b92915050565b60006020828403121561291e5761291d613706565b5b600061292c84828501612843565b91505092915050565b6000806040838503121561294c5761294b613706565b5b600061295a85828601612843565b925050602061296b85828601612843565b9150509250929050565b60008060006060848603121561298e5761298d613706565b5b600061299c86828701612843565b93505060206129ad86828701612843565b92505060406129be868287016128f3565b9150509250925092565b600080600080608085870312156129e2576129e1613706565b5b60006129f087828801612843565b9450506020612a0187828801612843565b9350506040612a12878288016128f3565b925050606085013567ffffffffffffffff811115612a3357612a32613701565b5b612a3f87828801612897565b91505092959194509250565b60008060408385031215612a6257612a61613706565b5b6000612a7085828601612843565b9250506020612a8185828601612858565b9150509250929050565b60008060408385031215612aa257612aa1613706565b5b6000612ab085828601612843565b9250506020612ac1858286016128f3565b9150509250929050565b600060208284031215612ae157612ae0613706565b5b6000612aef8482850161286d565b91505092915050565b600060208284031215612b0e57612b0d613706565b5b6000612b1c84828501612882565b91505092915050565b600060208284031215612b3b57612b3a613706565b5b600082013567ffffffffffffffff811115612b5957612b58613701565b5b612b65848285016128c5565b91505092915050565b600060208284031215612b8457612b83613706565b5b6000612b92848285016128f3565b91505092915050565b6000612ba78383612f02565b60208301905092915050565b612bbc8161344a565b82525050565b6000612bcd826132be565b612bd781856132ec565b9350612be2836132ae565b8060005b83811015612c13578151612bfa8882612b9b565b9750612c05836132df565b925050600181019050612be6565b5085935050505092915050565b612c298161345c565b82525050565b6000612c3a826132c9565b612c4481856132fd565b9350612c548185602086016134cd565b612c5d8161370b565b840191505092915050565b6000612c73826132d4565b612c7d8185613319565b9350612c8d8185602086016134cd565b612c968161370b565b840191505092915050565b6000612cac826132d4565b612cb6818561332a565b9350612cc68185602086016134cd565b80840191505092915050565b6000612cdf602b83613319565b9150612cea8261371c565b604082019050919050565b6000612d02603283613319565b9150612d0d8261376b565b604082019050919050565b6000612d25602683613319565b9150612d30826137ba565b604082019050919050565b6000612d48602583613319565b9150612d5382613809565b604082019050919050565b6000612d6b601c83613319565b9150612d7682613858565b602082019050919050565b6000612d8e602483613319565b9150612d9982613881565b604082019050919050565b6000612db1601983613319565b9150612dbc826138d0565b602082019050919050565b6000612dd4602983613319565b9150612ddf826138f9565b604082019050919050565b6000612df7603e83613319565b9150612e0282613948565b604082019050919050565b6000612e1a602083613319565b9150612e2582613997565b602082019050919050565b6000612e3d602083613319565b9150612e48826139c0565b602082019050919050565b6000612e60601883613319565b9150612e6b826139e9565b602082019050919050565b6000612e83602183613319565b9150612e8e82613a12565b604082019050919050565b6000612ea660008361330e565b9150612eb182613a61565b600082019050919050565b6000612ec9602c83613319565b9150612ed482613a64565b604082019050919050565b6000612eec602e83613319565b9150612ef782613ab3565b604082019050919050565b612f0b816134b4565b82525050565b612f1a816134b4565b82525050565b6000612f2c8286612ca1565b9150612f388285612ca1565b9150612f448284612ca1565b9150819050949350505050565b6000612f5c82612e99565b9150819050919050565b6000602082019050612f7b6000830184612bb3565b92915050565b6000608082019050612f966000830187612bb3565b612fa36020830186612bb3565b612fb06040830185612f11565b8181036060830152612fc28184612c2f565b905095945050505050565b60006020820190508181036000830152612fe78184612bc2565b905092915050565b60006020820190506130046000830184612c20565b92915050565b600060208201905081810360008301526130248184612c68565b905092915050565b6000602082019050818103600083015261304581612cd2565b9050919050565b6000602082019050818103600083015261306581612cf5565b9050919050565b6000602082019050818103600083015261308581612d18565b9050919050565b600060208201905081810360008301526130a581612d3b565b9050919050565b600060208201905081810360008301526130c581612d5e565b9050919050565b600060208201905081810360008301526130e581612d81565b9050919050565b6000602082019050818103600083015261310581612da4565b9050919050565b6000602082019050818103600083015261312581612dc7565b9050919050565b6000602082019050818103600083015261314581612dea565b9050919050565b6000602082019050818103600083015261316581612e0d565b9050919050565b6000602082019050818103600083015261318581612e30565b9050919050565b600060208201905081810360008301526131a581612e53565b9050919050565b600060208201905081810360008301526131c581612e76565b9050919050565b600060208201905081810360008301526131e581612ebc565b9050919050565b6000602082019050818103600083015261320581612edf565b9050919050565b60006020820190506132216000830184612f11565b92915050565b6000613231613242565b905061323d8282613532565b919050565b6000604051905090565b600067ffffffffffffffff821115613267576132666136c8565b5b6132708261370b565b9050602081019050919050565b600067ffffffffffffffff821115613298576132976136c8565b5b6132a18261370b565b9050602081019050919050565b6000819050602082019050919050565b600081519050919050565b600081519050919050565b600081519050919050565b6000602082019050919050565b600082825260208201905092915050565b600082825260208201905092915050565b600081905092915050565b600082825260208201905092915050565b600081905092915050565b6000613340826134b4565b915061334b836134b4565b9250827fffffffffffffffffffffffffffffffffffffffffffffffffffffffffffffffff038211156133805761337f6135dd565b5b828201905092915050565b6000613396826134b4565b91506133a1836134b4565b9250826133b1576133b061360c565b5b828204905092915050565b60006133c7826134b4565b91506133d2836134b4565b9250817fffffffffffffffffffffffffffffffffffffffffffffffffffffffffffffffff048311821515161561340b5761340a6135dd565b5b828202905092915050565b6000613421826134b4565b915061342c836134b4565b92508282101561343f5761343e6135dd565b5b828203905092915050565b600061345582613494565b9050919050565b60008115159050919050565b60007fffffffff0000000000000000000000000000000000000000000000000000000082169050919050565b600073ffffffffffffffffffffffffffffffffffffffff82169050919050565b6000819050919050565b82818337600083830152505050565b60005b838110156134eb5780820151818401526020810190506134d0565b838111156134fa576000848401525b50505050565b6000600282049050600182168061351857607f821691505b6020821081141561352c5761352b61363b565b5b50919050565b61353b8261370b565b810181811067ffffffffffffffff8211171561355a576135596136c8565b5b80604052505050565b600061356e826134b4565b91507fffffffffffffffffffffffffffffffffffffffffffffffffffffffffffffffff8214156135a1576135a06135dd565b5b600182019050919050565b60006135b7826134b4565b91506135c2836134b4565b9250826135d2576135d161360c565b5b828206905092915050565b7f4e487b7100000000000000000000000000000000000000000000000000000000600052601160045260246000fd5b7f4e487b7100000000000000000000000000000000000000000000000000000000600052601260045260246000fd5b7f4e487b7100000000000000000000000000000000000000000000000000000000600052602260045260246000fd5b7f4e487b7100000000000000000000000000000000000000000000000000000000600052603160045260246000fd5b7f4e487b7100000000000000000000000000000000000000000000000000000000600052603260045260246000fd5b7f4e487b7100000000000000000000000000000000000000000000000000000000600052604160045260246000fd5b600080fd5b600080fd5b600080fd5b600080fd5b6000601f19601f8301169050919050565b7f455243373231456e756d657261626c653a206f776e657220696e646578206f7560008201527f74206f6620626f756e6473000000000000000000000000000000000000000000602082015250565b7f4552433732313a207472616e7366657220746f206e6f6e20455243373231526560008201527f63656976657220696d706c656d656e7465720000000000000000000000000000602082015250565b7f4f776e61626c653a206e6577206f776e657220697320746865207a65726f206160008201527f6464726573730000000000000000000000000000000000000000000000000000602082015250565b7f4552433732313a207472616e736665722066726f6d20696e636f72726563742060008201527f6f776e6572000000000000000000000000000000000000000000000000000000602082015250565b7f4552433732313a20746f6b656e20616c7265616479206d696e74656400000000600082015250565b7f4552433732313a207472616e7366657220746f20746865207a65726f2061646460008201527f7265737300000000000000000000000000000000000000000000000000000000602082015250565b7f4552433732313a20617070726f766520746f2063616c6c657200000000000000600082015250565b7f4552433732313a2061646472657373207a65726f206973206e6f74206120766160008201527f6c6964206f776e65720000000000000000000000000000000000000000000000602082015250565b7f4552433732313a20617070726f76652063616c6c6572206973206e6f7420746f60008201527f6b656e206f776e6572206e6f7220617070726f76656420666f7220616c6c0000602082015250565b7f4552433732313a206d696e7420746f20746865207a65726f2061646472657373600082015250565b7f4f776e61626c653a2063616c6c6572206973206e6f7420746865206f776e6572600082015250565b7f4552433732313a20696e76616c696420746f6b656e2049440000000000000000600082015250565b7f4552433732313a20617070726f76616c20746f2063757272656e74206f776e6560008201527f7200000000000000000000000000000000000000000000000000000000000000602082015250565b50565b7f455243373231456e756d657261626c653a20676c6f62616c20696e646578206f60008201527f7574206f6620626f756e64730000000000000000000000000000000000000000602082015250565b7f4552433732313a2063616c6c6572206973206e6f7420746f6b656e206f776e6560008201527f72206e6f7220617070726f766564000000000000000000000000000000000000602082015250565b613b0b8161344a565b8114613b1657600080fd5b50565b613b228161345c565b8114613b2d57600080fd5b50565b613b3981613468565b8114613b4457600080fd5b50565b613b50816134b4565b8114613b5b57600080fd5b5056fea2646970667358221220534a4d130d9ae434d01379924dedb967cb526a29e43121139edf571049fc730f64736f6c63430008070033",
  "linkReferences": {},
  "deployedLinkReferences": {}
}