{
  "_format": "hh-sol-artifact-1",
  "contractName": "KryptoPunks",
  "sourceName": "contracts/KryptoPunks.sol",
  "abi": [
    {
      "inputs": [
        {
          "internalType": "uint256",
          "name": "_maxSupply",
          "type": "uint256"
        },
        {
          "internalType": "uint256",
          "name": "_cost",
          "type": "uint256"
        },
        {
          "internalType": "uint256",
          "name": "_maxMintAmountPerTx",
          "type": "uint256"
        }
      ],
      "stateMutability": "nonpayable",
      "type": "constructor"
    },
    {
      "anonymous": false,
      "inputs": [
        {
          "indexed": true,
          "internalType": "address",
          "name": "owner",
          "type": "address"
        },
        {
          "indexed": true,
          "internalType": "address",
          "name": "approved",
          "type": "address"
        },
        {
          "indexed": true,
          "internalType": "uint256",
          "name": "tokenId",
          "type": "uint256"
        }
      ],
      "name": "Approval",
      "type": "event"
    },
    {
      "anonymous": false,
      "inputs": [
        {
          "indexed": true,
          "internalType": "address",
          "name": "owner",
          "type": "address"
        },
        {
          "indexed": true,
          "internalType": "address",
          "name": "operator",
          "type": "address"
        },
        {
          "indexed": false,
          "internalType": "bool",
          "name": "approved",
          "type": "bool"
        }
      ],
      "name": "ApprovalForAll",
      "type": "event"
    },
    {
      "anonymous": false,
      "inputs": [
        {
          "indexed": true,
          "internalType": "address",
          "name": "previousOwner",
          "type": "address"
        },
        {
          "indexed": true,
          "internalType": "address",
          "name": "newOwner",
          "type": "address"
        }
      ],
      "name": "OwnershipTransferred",
      "type": "event"
    },
    {
      "anonymous": false,
      "inputs": [
        {
          "indexed": true,
          "internalType": "address",
          "name": "from",
          "type": "address"
        },
        {
          "indexed": true,
          "internalType": "address",
          "name": "to",
          "type": "address"
        },
        {
          "indexed": true,
          "internalType": "uint256",
          "name": "tokenId",
          "type": "uint256"
        }
      ],
      "name": "Transfer",
      "type": "event"
    },
    {
      "inputs": [
        {
          "internalType": "address",
          "name": "to",
          "type": "address"
        },
        {
          "internalType": "uint256",
          "name": "tokenId",
          "type": "uint256"
        }
      ],
      "name": "approve",
      "outputs": [],
      "stateMutability": "nonpayable",
      "type": "function"
    },
    {
      "inputs": [
        {
          "internalType": "address",
          "name": "owner",
          "type": "address"
        }
      ],
      "name": "balanceOf",
      "outputs": [
        {
          "internalType": "uint256",
          "name": "",
          "type": "uint256"
        }
      ],
      "stateMutability": "view",
      "type": "function"
    },
    {
      "inputs": [],
      "name": "baseExtension",
      "outputs": [
        {
          "internalType": "string",
          "name": "",
          "type": "string"
        }
      ],
      "stateMutability": "view",
      "type": "function"
    },
    {
      "inputs": [],
      "name": "baseURI",
      "outputs": [
        {
          "internalType": "string",
          "name": "",
          "type": "string"
        }
      ],
      "stateMutability": "view",
      "type": "function"
    },
    {
      "inputs": [],
      "name": "cost",
      "outputs": [
        {
          "internalType": "uint256",
          "name": "",
          "type": "uint256"
        }
      ],
      "stateMutability": "view",
      "type": "function"
    },
    {
      "inputs": [
        {
          "internalType": "uint256",
          "name": "tokenId",
          "type": "uint256"
        }
      ],
      "name": "getApproved",
      "outputs": [
        {
          "internalType": "address",
          "name": "",
          "type": "address"
        }
      ],
      "stateMutability": "view",
      "type": "function"
    },
    {
      "inputs": [
        {
          "internalType": "address",
          "name": "owner",
          "type": "address"
        },
        {
          "internalType": "address",
          "name": "operator",
          "type": "address"
        }
      ],
      "name": "isApprovedForAll",
      "outputs": [
        {
          "internalType": "bool",
          "name": "",
          "type": "bool"
        }
      ],
      "stateMutability": "view",
      "type": "function"
    },
    {
      "inputs": [],
      "name": "maxMintAmountPerTx",
      "outputs": [
        {
          "internalType": "uint256",
          "name": "",
          "type": "uint256"
        }
      ],
      "stateMutability": "view",
      "type": "function"
    },
    {
      "inputs": [],
      "name": "maxSupply",
      "outputs": [
        {
          "internalType": "uint256",
          "name": "",
          "type": "uint256"
        }
      ],
      "stateMutability": "view",
      "type": "function"
    },
    {
      "inputs": [
        {
          "internalType": "uint256",
          "name": "_mintAmount",
          "type": "uint256"
        }
      ],
      "name": "mint",
      "outputs": [],
      "stateMutability": "payable",
      "type": "function"
    },
    {
      "inputs": [],
      "name": "name",
      "outputs": [
        {
          "internalType": "string",
          "name": "",
          "type": "string"
        }
      ],
      "stateMutability": "view",
      "type": "function"
    },
    {
      "inputs": [],
      "name": "owner",
      "outputs": [
        {
          "internalType": "address",
          "name": "",
          "type": "address"
        }
      ],
      "stateMutability": "view",
      "type": "function"
    },
    {
      "inputs": [
        {
          "internalType": "uint256",
          "name": "tokenId",
          "type": "uint256"
        }
      ],
      "name": "ownerOf",
      "outputs": [
        {
          "internalType": "address",
          "name": "",
          "type": "address"
        }
      ],
      "stateMutability": "view",
      "type": "function"
    },
    {
      "inputs": [
        {
          "internalType": "bool",
          "name": "_state",
          "type": "bool"
        }
      ],
      "name": "pause",
      "outputs": [],
      "stateMutability": "payable",
      "type": "function"
    },
    {
      "inputs": [],
      "name": "paused",
      "outputs": [
        {
          "internalType": "bool",
          "name": "",
          "type": "bool"
        }
      ],
      "stateMutability": "view",
      "type": "function"
    },
    {
      "inputs": [],
      "name": "renounceOwnership",
      "outputs": [],
      "stateMutability": "nonpayable",
      "type": "function"
    },
    {
      "inputs": [
        {
          "internalType": "address",
          "name": "from",
          "type": "address"
        },
        {
          "internalType": "address",
          "name": "to",
          "type": "address"
        },
        {
          "internalType": "uint256",
          "name": "tokenId",
          "type": "uint256"
        }
      ],
      "name": "safeTransferFrom",
      "outputs": [],
      "stateMutability": "nonpayable",
      "type": "function"
    },
    {
      "inputs": [
        {
          "internalType": "address",
          "name": "from",
          "type": "address"
        },
        {
          "internalType": "address",
          "name": "to",
          "type": "address"
        },
        {
          "internalType": "uint256",
          "name": "tokenId",
          "type": "uint256"
        },
        {
          "internalType": "bytes",
          "name": "data",
          "type": "bytes"
        }
      ],
      "name": "safeTransferFrom",
      "outputs": [],
      "stateMutability": "nonpayable",
      "type": "function"
    },
    {
      "inputs": [
        {
          "internalType": "address",
          "name": "operator",
          "type": "address"
        },
        {
          "internalType": "bool",
          "name": "approved",
          "type": "bool"
        }
      ],
      "name": "setApprovalForAll",
      "outputs": [],
      "stateMutability": "nonpayable",
      "type": "function"
    },
    {
      "inputs": [
        {
          "internalType": "string",
          "name": "_newBaseURI",
          "type": "string"
        }
      ],
      "name": "setBaseURI",
      "outputs": [],
      "stateMutability": "payable",
      "type": "function"
    },
    {
      "inputs": [
        {
          "internalType": "uint256",
          "name": "_newCost",
          "type": "uint256"
        }
      ],
      "name": "setCost",
      "outputs": [],
      "stateMutability": "payable",
      "type": "function"
    },
    {
      "inputs": [
        {
          "internalType": "uint256",
          "name": "_newmaxMintAmount",
          "type": "uint256"
        }
      ],
      "name": "setMaxMintAmountPerTx",
      "outputs": [],
      "stateMutability": "payable",
      "type": "function"
    },
    {
      "inputs": [
        {
          "internalType": "bytes4",
          "name": "interfaceId",
          "type": "bytes4"
        }
      ],
      "name": "supportsInterface",
      "outputs": [
        {
          "internalType": "bool",
          "name": "",
          "type": "bool"
        }
      ],
      "stateMutability": "view",
      "type": "function"
    },
    {
      "inputs": [],
      "name": "symbol",
      "outputs": [
        {
          "internalType": "string",
          "name": "",
          "type": "string"
        }
      ],
      "stateMutability": "view",
      "type": "function"
    },
    {
      "inputs": [
        {
          "internalType": "uint256",
          "name": "index",
          "type": "uint256"
        }
      ],
      "name": "tokenByIndex",
      "outputs": [
        {
          "internalType": "uint256",
          "name": "",
          "type": "uint256"
        }
      ],
      "stateMutability": "view",
      "type": "function"
    },
    {
      "inputs": [
        {
          "internalType": "address",
          "name": "owner",
          "type": "address"
        },
        {
          "internalType": "uint256",
          "name": "index",
          "type": "uint256"
        }
      ],
      "name": "tokenOfOwnerByIndex",
      "outputs": [
        {
          "internalType": "uint256",
          "name": "",
          "type": "uint256"
        }
      ],
      "stateMutability": "view",
      "type": "function"
    },
    {
      "inputs": [
        {
          "internalType": "uint256",
          "name": "tokenId",
          "type": "uint256"
        }
      ],
      "name": "tokenURI",
      "outputs": [
        {
          "internalType": "string",
          "name": "",
          "type": "string"
        }
      ],
      "stateMutability": "view",
      "type": "function"
    },
    {
      "inputs": [],
      "name": "totalSupply",
      "outputs": [
        {
          "internalType": "uint256",
          "name": "",
          "type": "uint256"
        }
      ],
      "stateMutability": "view",
      "type": "function"
    },
    {
      "inputs": [
        {
          "internalType": "address",
          "name": "from",
          "type": "address"
        },
        {
          "internalType": "address",
          "name": "to",
          "type": "address"
        },
        {
          "internalType": "uint256",
          "name": "tokenId",
          "type": "uint256"
        }
      ],
      "name": "transferFrom",
      "outputs": [],
      "stateMutability": "nonpayable",
      "type": "function"
    },
    {
      "inputs": [
        {
          "internalType": "address",
          "name": "newOwner",
          "type": "address"
        }
      ],
      "name": "transferOwnership",
      "outputs": [],
      "stateMutability": "nonpayable",
      "type": "function"
    },
    {
      "inputs": [
        {
          "internalType": "address",
          "name": "_owner",
          "type": "address"
        }
      ],
      "name": "walletOfOwner",
      "outputs": [
        {
          "internalType": "uint256[]",
          "name": "",
          "type": "uint256[]"
        }
      ],
      "stateMutability": "view",
      "type": "function"
    },
    {
      "inputs": [],
      "name": "withdraw",
      "outputs": [],
      "stateMutability": "payable",
      "type": "function"
    }
  ],
  "bytecode": "0x60806040526001600f60006101000a81548160ff0219169083151502179055503480156200002c57600080fd5b50604051620042b4380380620042b48339818101604052810190620000529190620002c5565b6040518060400160405280601881526020017f4b727970746f2050756e6b7320436f6c6c65637469626c6500000000000000008152506040518060400160405280600381526020017f4b504300000000000000000000000000000000000000000000000000000000008152508160009080519060200190620000d6929190620001fe565b508060019080519060200190620000ef929190620001fe565b50505062000112620001066200013060201b60201c565b6200013860201b60201c565b81600c8190555080600e8190555082600d81905550505050620003af565b600033905090565b6000600a60009054906101000a900473ffffffffffffffffffffffffffffffffffffffff16905081600a60006101000a81548173ffffffffffffffffffffffffffffffffffffffff021916908373ffffffffffffffffffffffffffffffffffffffff1602179055508173ffffffffffffffffffffffffffffffffffffffff168173ffffffffffffffffffffffffffffffffffffffff167f8be0079c531659141344cd1fd0a4f28419497f9722a3daafe3b4186f6b6457e060405160405180910390a35050565b8280546200020c906200032b565b90600052602060002090601f0160209004810192826200023057600085556200027c565b82601f106200024b57805160ff19168380011785556200027c565b828001600101855582156200027c579182015b828111156200027b5782518255916020019190600101906200025e565b5b5090506200028b91906200028f565b5090565b5b80821115620002aa57600081600090555060010162000290565b5090565b600081519050620002bf8162000395565b92915050565b600080600060608486031215620002e157620002e062000390565b5b6000620002f186828701620002ae565b93505060206200030486828701620002ae565b92505060406200031786828701620002ae565b9150509250925092565b6000819050919050565b600060028204905060018216806200034457607f821691505b602082108114156200035b576200035a62000361565b5b50919050565b7f4e487b7100000000000000000000000000000000000000000000000000000000600052602260045260246000fd5b600080fd5b620003a08162000321565b8114620003ac57600080fd5b50565b613ef580620003bf6000396000f3fe6080604052600436106101e35760003560e01c80636352211e11610102578063a22cb46511610095578063c87b56dd11610064578063c87b56dd14610690578063d5abeb01146106cd578063e985e9c5146106f8578063f2fde38b14610735576101e3565b8063a22cb465146105f7578063b071401b14610620578063b88d4fde1461063c578063c668286214610665576101e3565b80638da5cb5b116100d15780638da5cb5b1461055a57806394354fd01461058557806395d89b41146105b0578063a0712d68146105db576101e3565b80636352211e1461049e5780636c0360eb146104db57806370a0823114610506578063715018a614610543576101e3565b80632f745c591161017a57806344a0d68a1161014957806344a0d68a146103fe5780634f6ccce71461041a57806355f804b3146104575780635c975abb14610473576101e3565b80632f745c59146103515780633ccfd60b1461038e57806342842e0e14610398578063438b6300146103c1576101e3565b8063095ea7b3116101b6578063095ea7b3146102a957806313faede6146102d257806318160ddd146102fd57806323b872dd14610328576101e3565b806301ffc9a7146101e857806302329a291461022557806306fdde0314610241578063081812fc1461026c575b600080fd5b3480156101f457600080fd5b5061020f600480360381019061020a9190612b58565b61075e565b60405161021c919061314e565b60405180910390f35b61023f600480360381019061023a9190612b2b565b6107d8565b005b34801561024d57600080fd5b506102566107fd565b6040516102639190613169565b60405180910390f35b34801561027857600080fd5b50610293600480360381019061028e9190612bfb565b61088f565b6040516102a091906130c5565b60405180910390f35b3480156102b557600080fd5b506102d060048036038101906102cb9190612aeb565b6108d5565b005b3480156102de57600080fd5b506102e76109ed565b6040516102f4919061342b565b60405180910390f35b34801561030957600080fd5b506103126109f3565b60405161031f919061342b565b60405180910390f35b34801561033457600080fd5b5061034f600480360381019061034a91906129d5565b610a00565b005b34801561035d57600080fd5b5061037860048036038101906103739190612aeb565b610a60565b604051610385919061342b565b60405180910390f35b610396610b05565b005b3480156103a457600080fd5b506103bf60048036038101906103ba91906129d5565b610b8d565b005b3480156103cd57600080fd5b506103e860048036038101906103e39190612968565b610bad565b6040516103f5919061312c565b60405180910390f35b61041860048036038101906104139190612bfb565b610c53565b005b34801561042657600080fd5b50610441600480360381019061043c9190612bfb565b610c65565b60405161044e919061342b565b60405180910390f35b610471600480360381019061046c9190612bb2565b610cd6565b005b34801561047f57600080fd5b50610488610cf8565b604051610495919061314e565b60405180910390f35b3480156104aa57600080fd5b506104c560048036038101906104c09190612bfb565b610d0b565b6040516104d291906130c5565b60405180910390f35b3480156104e757600080fd5b506104f0610dbd565b6040516104fd9190613169565b60405180910390f35b34801561051257600080fd5b5061052d60048036038101906105289190612968565b610e4b565b60405161053a919061342b565b60405180910390f35b34801561054f57600080fd5b50610558610f03565b005b34801561056657600080fd5b5061056f610f17565b60405161057c91906130c5565b60405180910390f35b34801561059157600080fd5b5061059a610f41565b6040516105a7919061342b565b60405180910390f35b3480156105bc57600080fd5b506105c5610f47565b6040516105d29190613169565b60405180910390f35b6105f560048036038101906105f09190612bfb565b610fd9565b005b34801561060357600080fd5b5061061e60048036038101906106199190612aab565b6111cc565b005b61063a60048036038101906106359190612bfb565b6111e2565b005b34801561064857600080fd5b50610663600480360381019061065e9190612a28565b6111f4565b005b34801561067157600080fd5b5061067a611256565b6040516106879190613169565b60405180910390f35b34801561069c57600080fd5b506106b760048036038101906106b29190612bfb565b61128f565b6040516106c49190613169565b60405180910390f35b3480156106d957600080fd5b506106e261136d565b6040516106ef919061342b565b60405180910390f35b34801561070457600080fd5b5061071f600480360381019061071a9190612995565b611373565b60405161072c919061314e565b60405180910390f35b34801561074157600080fd5b5061075c60048036038101906107579190612968565b611407565b005b60007f780e9d63000000000000000000000000000000000000000000000000000000007bffffffffffffffffffffffffffffffffffffffffffffffffffffffff1916827bffffffffffffffffffffffffffffffffffffffffffffffffffffffff191614806107d157506107d08261148b565b5b9050919050565b6107e061156d565b80600f60006101000a81548160ff02191690831515021790555050565b60606000805461080c9061371f565b80601f01602080910402602001604051908101604052809291908181526020018280546108389061371f565b80156108855780601f1061085a57610100808354040283529160200191610885565b820191906000526020600020905b81548152906001019060200180831161086857829003601f168201915b5050505050905090565b600061089a826115eb565b6004600083815260200190815260200160002060009054906101000a900473ffffffffffffffffffffffffffffffffffffffff169050919050565b60006108e082610d0b565b90508073ffffffffffffffffffffffffffffffffffffffff168373ffffffffffffffffffffffffffffffffffffffff161415610951576040517f08c379a00000000000000000000000000000000000000000000000000000000081526004016109489061338b565b60405180910390fd5b8073ffffffffffffffffffffffffffffffffffffffff16610970611636565b73ffffffffffffffffffffffffffffffffffffffff16148061099f575061099e81610999611636565b611373565b5b6109de576040517f08c379a00000000000000000000000000000000000000000000000000000000081526004016109d5906132cb565b60405180910390fd5b6109e8838361163e565b505050565b600c5481565b6000600880549050905090565b610a11610a0b611636565b826116f7565b610a50576040517f08c379a0000000000000000000000000000000000000000000000000000000008152600401610a47906133eb565b60405180910390fd5b610a5b83838361178c565b505050565b6000610a6b83610e4b565b8210610aac576040517f08c379a0000000000000000000000000000000000000000000000000000000008152600401610aa39061318b565b60405180910390fd5b600660008473ffffffffffffffffffffffffffffffffffffffff1673ffffffffffffffffffffffffffffffffffffffff168152602001908152602001600020600083815260200190815260200160002054905092915050565b610b0d61156d565b6000610b17610f17565b73ffffffffffffffffffffffffffffffffffffffff1647604051610b3a906130b0565b60006040518083038185875af1925050503d8060008114610b77576040519150601f19603f3d011682016040523d82523d6000602084013e610b7c565b606091505b5050905080610b8a57600080fd5b50565b610ba8838383604051806020016040528060008152506111f4565b505050565b60606000610bba83610e4b565b905060008167ffffffffffffffff811115610bd857610bd76138e7565b5b604051908082528060200260200182016040528015610c065781602001602082028036833780820191505090505b50905060005b82811015610c4857610c1e8582610a60565b828281518110610c3157610c306138b8565b5b602002602001018181525050806001019050610c0c565b508092505050919050565b610c5b61156d565b80600c8190555050565b6000610c6f6109f3565b8210610cb0576040517f08c379a0000000000000000000000000000000000000000000000000000000008152600401610ca7906133cb565b60405180910390fd5b60088281548110610cc457610cc36138b8565b5b90600052602060002001549050919050565b610cde61156d565b80600b9080519060200190610cf492919061277c565b5050565b600f60009054906101000a900460ff1681565b6000806002600084815260200190815260200160002060009054906101000a900473ffffffffffffffffffffffffffffffffffffffff169050600073ffffffffffffffffffffffffffffffffffffffff168173ffffffffffffffffffffffffffffffffffffffff161415610db4576040517f08c379a0000000000000000000000000000000000000000000000000000000008152600401610dab9061336b565b60405180910390fd5b80915050919050565b600b8054610dca9061371f565b80601f0160208091040260200160405190810160405280929190818152602001828054610df69061371f565b8015610e435780601f10610e1857610100808354040283529160200191610e43565b820191906000526020600020905b815481529060010190602001808311610e2657829003601f168201915b505050505081565b60008073ffffffffffffffffffffffffffffffffffffffff168273ffffffffffffffffffffffffffffffffffffffff161415610ebc576040517f08c379a0000000000000000000000000000000000000000000000000000000008152600401610eb39061326b565b60405180910390fd5b600360008373ffffffffffffffffffffffffffffffffffffffff1673ffffffffffffffffffffffffffffffffffffffff168152602001908152602001600020549050919050565b610f0b61156d565b610f1560006119f3565b565b6000600a60009054906101000a900473ffffffffffffffffffffffffffffffffffffffff16905090565b600e5481565b606060018054610f569061371f565b80601f0160208091040260200160405190810160405280929190818152602001828054610f829061371f565b8015610fcf5780601f10610fa457610100808354040283529160200191610fcf565b820191906000526020600020905b815481529060010190602001808311610fb257829003601f168201915b5050505050905090565b600f60009054906101000a900460ff1615611029576040517f08c379a00000000000000000000000000000000000000000000000000000000081526004016110209061332b565b60405180910390fd5b600081141561106d576040517f08c379a00000000000000000000000000000000000000000000000000000000081526004016110649061340b565b60405180910390fd5b600e548111156110b2576040517f08c379a00000000000000000000000000000000000000000000000000000000081526004016110a9906132ab565b60405180910390fd5b60006110bc6109f3565b9050600d5482826110cd9190613554565b111561110e576040517f08c379a00000000000000000000000000000000000000000000000000000000081526004016111059061328b565b60405180910390fd5b611116610f17565b73ffffffffffffffffffffffffffffffffffffffff163373ffffffffffffffffffffffffffffffffffffffff16146111995781600c5461115691906135db565b341015611198576040517f08c379a000000000000000000000000000000000000000000000000000000000815260040161118f906133ab565b60405180910390fd5b5b6000600190505b8281116111c7576111bc3382846111b79190613554565b611ab9565b8060010190506111a0565b505050565b6111de6111d7611636565b8383611ad7565b5050565b6111ea61156d565b80600e8190555050565b6112056111ff611636565b836116f7565b611244576040517f08c379a000000000000000000000000000000000000000000000000000000000815260040161123b906133eb565b60405180910390fd5b61125084848484611c44565b50505050565b6040518060400160405280600581526020017f2e6a736f6e00000000000000000000000000000000000000000000000000000081525081565b606061129a82611ca0565b6112d9576040517f08c379a00000000000000000000000000000000000000000000000000000000081526004016112d09061334b565b60405180910390fd5b60006112e3611d0c565b905060008151116113035760405180602001604052806000815250611365565b8061130d84611d9e565b6040518060400160405280600581526020017f2e6a736f6e0000000000000000000000000000000000000000000000000000008152506040516020016113559392919061307f565b6040516020818303038152906040525b915050919050565b600d5481565b6000600560008473ffffffffffffffffffffffffffffffffffffffff1673ffffffffffffffffffffffffffffffffffffffff16815260200190815260200160002060008373ffffffffffffffffffffffffffffffffffffffff1673ffffffffffffffffffffffffffffffffffffffff16815260200190815260200160002060009054906101000a900460ff16905092915050565b61140f61156d565b600073ffffffffffffffffffffffffffffffffffffffff168173ffffffffffffffffffffffffffffffffffffffff16141561147f576040517f08c379a0000000000000000000000000000000000000000000000000000000008152600401611476906131cb565b60405180910390fd5b611488816119f3565b50565b60007f80ac58cd000000000000000000000000000000000000000000000000000000007bffffffffffffffffffffffffffffffffffffffffffffffffffffffff1916827bffffffffffffffffffffffffffffffffffffffffffffffffffffffff1916148061155657507f5b5e139f000000000000000000000000000000000000000000000000000000007bffffffffffffffffffffffffffffffffffffffffffffffffffffffff1916827bffffffffffffffffffffffffffffffffffffffffffffffffffffffff1916145b80611566575061156582611eff565b5b9050919050565b611575611636565b73ffffffffffffffffffffffffffffffffffffffff16611593610f17565b73ffffffffffffffffffffffffffffffffffffffff16146115e9576040517f08c379a00000000000000000000000000000000000000000000000000000000081526004016115e09061330b565b60405180910390fd5b565b6115f481611ca0565b611633576040517f08c379a000000000000000000000000000000000000000000000000000000000815260040161162a9061336b565b60405180910390fd5b50565b600033905090565b816004600083815260200190815260200160002060006101000a81548173ffffffffffffffffffffffffffffffffffffffff021916908373ffffffffffffffffffffffffffffffffffffffff160217905550808273ffffffffffffffffffffffffffffffffffffffff166116b183610d0b565b73ffffffffffffffffffffffffffffffffffffffff167f8c5be1e5ebec7d5bd14f71427d1e84f3dd0314c0f7b2291e5b200ac8c7c3b92560405160405180910390a45050565b60008061170383610d0b565b90508073ffffffffffffffffffffffffffffffffffffffff168473ffffffffffffffffffffffffffffffffffffffff16148061174557506117448185611373565b5b8061178357508373ffffffffffffffffffffffffffffffffffffffff1661176b8461088f565b73ffffffffffffffffffffffffffffffffffffffff16145b91505092915050565b8273ffffffffffffffffffffffffffffffffffffffff166117ac82610d0b565b73ffffffffffffffffffffffffffffffffffffffff1614611802576040517f08c379a00000000000000000000000000000000000000000000000000000000081526004016117f9906131eb565b60405180910390fd5b600073ffffffffffffffffffffffffffffffffffffffff168273ffffffffffffffffffffffffffffffffffffffff161415611872576040517f08c379a00000000000000000000000000000000000000000000000000000000081526004016118699061322b565b60405180910390fd5b61187d838383611f69565b61188860008261163e565b6001600360008573ffffffffffffffffffffffffffffffffffffffff1673ffffffffffffffffffffffffffffffffffffffff16815260200190815260200160002060008282546118d89190613635565b925050819055506001600360008473ffffffffffffffffffffffffffffffffffffffff1673ffffffffffffffffffffffffffffffffffffffff168152602001908152602001600020600082825461192f9190613554565b92505081905550816002600083815260200190815260200160002060006101000a81548173ffffffffffffffffffffffffffffffffffffffff021916908373ffffffffffffffffffffffffffffffffffffffff160217905550808273ffffffffffffffffffffffffffffffffffffffff168473ffffffffffffffffffffffffffffffffffffffff167fddf252ad1be2c89b69c2b068fc378daa952ba7f163c4a11628f55a4df523b3ef60405160405180910390a46119ee83838361207d565b505050565b6000600a60009054906101000a900473ffffffffffffffffffffffffffffffffffffffff16905081600a60006101000a81548173ffffffffffffffffffffffffffffffffffffffff021916908373ffffffffffffffffffffffffffffffffffffffff1602179055508173ffffffffffffffffffffffffffffffffffffffff168173ffffffffffffffffffffffffffffffffffffffff167f8be0079c531659141344cd1fd0a4f28419497f9722a3daafe3b4186f6b6457e060405160405180910390a35050565b611ad3828260405180602001604052806000815250612082565b5050565b8173ffffffffffffffffffffffffffffffffffffffff168373ffffffffffffffffffffffffffffffffffffffff161415611b46576040517f08c379a0000000000000000000000000000000000000000000000000000000008152600401611b3d9061324b565b60405180910390fd5b80600560008573ffffffffffffffffffffffffffffffffffffffff1673ffffffffffffffffffffffffffffffffffffffff16815260200190815260200160002060008473ffffffffffffffffffffffffffffffffffffffff1673ffffffffffffffffffffffffffffffffffffffff16815260200190815260200160002060006101000a81548160ff0219169083151502179055508173ffffffffffffffffffffffffffffffffffffffff168373ffffffffffffffffffffffffffffffffffffffff167f17307eab39ab6107e8899845ad3d59bd9653f200f220920489ca2b5937696c3183604051611c37919061314e565b60405180910390a3505050565b611c4f84848461178c565b611c5b848484846120dd565b611c9a576040517f08c379a0000000000000000000000000000000000000000000000000000000008152600401611c91906131ab565b60405180910390fd5b50505050565b60008073ffffffffffffffffffffffffffffffffffffffff166002600084815260200190815260200160002060009054906101000a900473ffffffffffffffffffffffffffffffffffffffff1673ffffffffffffffffffffffffffffffffffffffff1614159050919050565b6060600b8054611d1b9061371f565b80601f0160208091040260200160405190810160405280929190818152602001828054611d479061371f565b8015611d945780601f10611d6957610100808354040283529160200191611d94565b820191906000526020600020905b815481529060010190602001808311611d7757829003601f168201915b5050505050905090565b60606000821415611de6576040518060400160405280600181526020017f30000000000000000000000000000000000000000000000000000000000000008152509050611efa565b600082905060005b60008214611e18578080611e0190613782565b915050600a82611e1191906135aa565b9150611dee565b60008167ffffffffffffffff811115611e3457611e336138e7565b5b6040519080825280601f01601f191660200182016040528015611e665781602001600182028036833780820191505090505b5090505b60008514611ef357600182611e7f9190613635565b9150600a85611e8e91906137cb565b6030611e9a9190613554565b60f81b818381518110611eb057611eaf6138b8565b5b60200101907effffffffffffffffffffffffffffffffffffffffffffffffffffffffffffff1916908160001a905350600a85611eec91906135aa565b9450611e6a565b8093505050505b919050565b60007f01ffc9a7000000000000000000000000000000000000000000000000000000007bffffffffffffffffffffffffffffffffffffffffffffffffffffffff1916827bffffffffffffffffffffffffffffffffffffffffffffffffffffffff1916149050919050565b611f74838383612274565b600073ffffffffffffffffffffffffffffffffffffffff168373ffffffffffffffffffffffffffffffffffffffff161415611fb757611fb281612279565b611ff6565b8173ffffffffffffffffffffffffffffffffffffffff168373ffffffffffffffffffffffffffffffffffffffff1614611ff557611ff483826122c2565b5b5b600073ffffffffffffffffffffffffffffffffffffffff168273ffffffffffffffffffffffffffffffffffffffff161415612039576120348161242f565b612078565b8273ffffffffffffffffffffffffffffffffffffffff168273ffffffffffffffffffffffffffffffffffffffff1614612077576120768282612500565b5b5b505050565b505050565b61208c838361257f565b61209960008484846120dd565b6120d8576040517f08c379a00000000000000000000000000000000000000000000000000000000081526004016120cf906131ab565b60405180910390fd5b505050565b60006120fe8473ffffffffffffffffffffffffffffffffffffffff16612759565b15612267578373ffffffffffffffffffffffffffffffffffffffff1663150b7a02612127611636565b8786866040518563ffffffff1660e01b815260040161214994939291906130e0565b602060405180830381600087803b15801561216357600080fd5b505af192505050801561219457506040513d601f19601f820116820180604052508101906121919190612b85565b60015b612217573d80600081146121c4576040519150601f19603f3d011682016040523d82523d6000602084013e6121c9565b606091505b5060008151141561220f576040517f08c379a0000000000000000000000000000000000000000000000000000000008152600401612206906131ab565b60405180910390fd5b805181602001fd5b63150b7a0260e01b7bffffffffffffffffffffffffffffffffffffffffffffffffffffffff1916817bffffffffffffffffffffffffffffffffffffffffffffffffffffffff19161491505061226c565b600190505b949350505050565b505050565b6008805490506009600083815260200190815260200160002081905550600881908060018154018082558091505060019003906000526020600020016000909190919091505550565b600060016122cf84610e4b565b6122d99190613635565b90506000600760008481526020019081526020016000205490508181146123be576000600660008673ffffffffffffffffffffffffffffffffffffffff1673ffffffffffffffffffffffffffffffffffffffff168152602001908152602001600020600084815260200190815260200160002054905080600660008773ffffffffffffffffffffffffffffffffffffffff1673ffffffffffffffffffffffffffffffffffffffff168152602001908152602001600020600084815260200190815260200160002081905550816007600083815260200190815260200160002081905550505b6007600084815260200190815260200160002060009055600660008573ffffffffffffffffffffffffffffffffffffffff1673ffffffffffffffffffffffffffffffffffffffff16815260200190815260200160002060008381526020019081526020016000206000905550505050565b600060016008805490506124439190613635565b9050600060096000848152602001908152602001600020549050600060088381548110612473576124726138b8565b5b906000526020600020015490508060088381548110612495576124946138b8565b5b9060005260206000200181905550816009600083815260200190815260200160002081905550600960008581526020019081526020016000206000905560088054806124e4576124e3613889565b5b6001900381819060005260206000200160009055905550505050565b600061250b83610e4b565b905081600660008573ffffffffffffffffffffffffffffffffffffffff1673ffffffffffffffffffffffffffffffffffffffff168152602001908152602001600020600083815260200190815260200160002081905550806007600084815260200190815260200160002081905550505050565b600073ffffffffffffffffffffffffffffffffffffffff168273ffffffffffffffffffffffffffffffffffffffff1614156125ef576040517f08c379a00000000000000000000000000000000000000000000000000000000081526004016125e6906132eb565b60405180910390fd5b6125f881611ca0565b15612638576040517f08c379a000000000000000000000000000000000000000000000000000000000815260040161262f9061320b565b60405180910390fd5b61264460008383611f69565b6001600360008473ffffffffffffffffffffffffffffffffffffffff1673ffffffffffffffffffffffffffffffffffffffff16815260200190815260200160002060008282546126949190613554565b92505081905550816002600083815260200190815260200160002060006101000a81548173ffffffffffffffffffffffffffffffffffffffff021916908373ffffffffffffffffffffffffffffffffffffffff160217905550808273ffffffffffffffffffffffffffffffffffffffff16600073ffffffffffffffffffffffffffffffffffffffff167fddf252ad1be2c89b69c2b068fc378daa952ba7f163c4a11628f55a4df523b3ef60405160405180910390a46127556000838361207d565b5050565b6000808273ffffffffffffffffffffffffffffffffffffffff163b119050919050565b8280546127889061371f565b90600052602060002090601f0160209004810192826127aa57600085556127f1565b82601f106127c357805160ff19168380011785556127f1565b828001600101855582156127f1579182015b828111156127f05782518255916020019190600101906127d5565b5b5090506127fe9190612802565b5090565b5b8082111561281b576000816000905550600101612803565b5090565b600061283261282d8461346b565b613446565b90508281526020810184848401111561284e5761284d61391b565b5b6128598482856136dd565b509392505050565b600061287461286f8461349c565b613446565b9050828152602081018484840111156128905761288f61391b565b5b61289b8482856136dd565b509392505050565b6000813590506128b281613e63565b92915050565b6000813590506128c781613e7a565b92915050565b6000813590506128dc81613e91565b92915050565b6000815190506128f181613e91565b92915050565b600082601f83011261290c5761290b613916565b5b813561291c84826020860161281f565b91505092915050565b600082601f83011261293a57612939613916565b5b813561294a848260208601612861565b91505092915050565b60008135905061296281613ea8565b92915050565b60006020828403121561297e5761297d613925565b5b600061298c848285016128a3565b91505092915050565b600080604083850312156129ac576129ab613925565b5b60006129ba858286016128a3565b92505060206129cb858286016128a3565b9150509250929050565b6000806000606084860312156129ee576129ed613925565b5b60006129fc868287016128a3565b9350506020612a0d868287016128a3565b9250506040612a1e86828701612953565b9150509250925092565b60008060008060808587031215612a4257612a41613925565b5b6000612a50878288016128a3565b9450506020612a61878288016128a3565b9350506040612a7287828801612953565b925050606085013567ffffffffffffffff811115612a9357612a92613920565b5b612a9f878288016128f7565b91505092959194509250565b60008060408385031215612ac257612ac1613925565b5b6000612ad0858286016128a3565b9250506020612ae1858286016128b8565b9150509250929050565b60008060408385031215612b0257612b01613925565b5b6000612b10858286016128a3565b9250506020612b2185828601612953565b9150509250929050565b600060208284031215612b4157612b40613925565b5b6000612b4f848285016128b8565b91505092915050565b600060208284031215612b6e57612b6d613925565b5b6000612b7c848285016128cd565b91505092915050565b600060208284031215612b9b57612b9a613925565b5b6000612ba9848285016128e2565b91505092915050565b600060208284031215612bc857612bc7613925565b5b600082013567ffffffffffffffff811115612be657612be5613920565b5b612bf284828501612925565b91505092915050565b600060208284031215612c1157612c10613925565b5b6000612c1f84828501612953565b91505092915050565b6000612c348383613061565b60208301905092915050565b612c4981613669565b82525050565b6000612c5a826134dd565b612c64818561350b565b9350612c6f836134cd565b8060005b83811015612ca0578151612c878882612c28565b9750612c92836134fe565b925050600181019050612c73565b5085935050505092915050565b612cb68161367b565b82525050565b6000612cc7826134e8565b612cd1818561351c565b9350612ce18185602086016136ec565b612cea8161392a565b840191505092915050565b6000612d00826134f3565b612d0a8185613538565b9350612d1a8185602086016136ec565b612d238161392a565b840191505092915050565b6000612d39826134f3565b612d438185613549565b9350612d538185602086016136ec565b80840191505092915050565b6000612d6c602b83613538565b9150612d778261393b565b604082019050919050565b6000612d8f603283613538565b9150612d9a8261398a565b604082019050919050565b6000612db2602683613538565b9150612dbd826139d9565b604082019050919050565b6000612dd5602583613538565b9150612de082613a28565b604082019050919050565b6000612df8601c83613538565b9150612e0382613a77565b602082019050919050565b6000612e1b602483613538565b9150612e2682613aa0565b604082019050919050565b6000612e3e601983613538565b9150612e4982613aef565b602082019050919050565b6000612e61602983613538565b9150612e6c82613b18565b604082019050919050565b6000612e84601683613538565b9150612e8f82613b67565b602082019050919050565b6000612ea7602483613538565b9150612eb282613b90565b604082019050919050565b6000612eca603e83613538565b9150612ed582613bdf565b604082019050919050565b6000612eed602083613538565b9150612ef882613c2e565b602082019050919050565b6000612f10602083613538565b9150612f1b82613c57565b602082019050919050565b6000612f33601683613538565b9150612f3e82613c80565b602082019050919050565b6000612f56602f83613538565b9150612f6182613ca9565b604082019050919050565b6000612f79601883613538565b9150612f8482613cf8565b602082019050919050565b6000612f9c602183613538565b9150612fa782613d21565b604082019050919050565b6000612fbf60008361352d565b9150612fca82613d70565b600082019050919050565b6000612fe2601283613538565b9150612fed82613d73565b602082019050919050565b6000613005602c83613538565b915061301082613d9c565b604082019050919050565b6000613028602e83613538565b915061303382613deb565b604082019050919050565b600061304b601b83613538565b915061305682613e3a565b602082019050919050565b61306a816136d3565b82525050565b613079816136d3565b82525050565b600061308b8286612d2e565b91506130978285612d2e565b91506130a38284612d2e565b9150819050949350505050565b60006130bb82612fb2565b9150819050919050565b60006020820190506130da6000830184612c40565b92915050565b60006080820190506130f56000830187612c40565b6131026020830186612c40565b61310f6040830185613070565b81810360608301526131218184612cbc565b905095945050505050565b600060208201905081810360008301526131468184612c4f565b905092915050565b60006020820190506131636000830184612cad565b92915050565b600060208201905081810360008301526131838184612cf5565b905092915050565b600060208201905081810360008301526131a481612d5f565b9050919050565b600060208201905081810360008301526131c481612d82565b9050919050565b600060208201905081810360008301526131e481612da5565b9050919050565b6000602082019050818103600083015261320481612dc8565b9050919050565b6000602082019050818103600083015261322481612deb565b9050919050565b6000602082019050818103600083015261324481612e0e565b9050919050565b6000602082019050818103600083015261326481612e31565b9050919050565b6000602082019050818103600083015261328481612e54565b9050919050565b600060208201905081810360008301526132a481612e77565b9050919050565b600060208201905081810360008301526132c481612e9a565b9050919050565b600060208201905081810360008301526132e481612ebd565b9050919050565b6000602082019050818103600083015261330481612ee0565b9050919050565b6000602082019050818103600083015261332481612f03565b9050919050565b6000602082019050818103600083015261334481612f26565b9050919050565b6000602082019050818103600083015261336481612f49565b9050919050565b6000602082019050818103600083015261338481612f6c565b9050919050565b600060208201905081810360008301526133a481612f8f565b9050919050565b600060208201905081810360008301526133c481612fd5565b9050919050565b600060208201905081810360008301526133e481612ff8565b9050919050565b600060208201905081810360008301526134048161301b565b9050919050565b600060208201905081810360008301526134248161303e565b9050919050565b60006020820190506134406000830184613070565b92915050565b6000613450613461565b905061345c8282613751565b919050565b6000604051905090565b600067ffffffffffffffff821115613486576134856138e7565b5b61348f8261392a565b9050602081019050919050565b600067ffffffffffffffff8211156134b7576134b66138e7565b5b6134c08261392a565b9050602081019050919050565b6000819050602082019050919050565b600081519050919050565b600081519050919050565b600081519050919050565b6000602082019050919050565b600082825260208201905092915050565b600082825260208201905092915050565b600081905092915050565b600082825260208201905092915050565b600081905092915050565b600061355f826136d3565b915061356a836136d3565b9250827fffffffffffffffffffffffffffffffffffffffffffffffffffffffffffffffff0382111561359f5761359e6137fc565b5b828201905092915050565b60006135b5826136d3565b91506135c0836136d3565b9250826135d0576135cf61382b565b5b828204905092915050565b60006135e6826136d3565b91506135f1836136d3565b9250817fffffffffffffffffffffffffffffffffffffffffffffffffffffffffffffffff048311821515161561362a576136296137fc565b5b828202905092915050565b6000613640826136d3565b915061364b836136d3565b92508282101561365e5761365d6137fc565b5b828203905092915050565b6000613674826136b3565b9050919050565b60008115159050919050565b60007fffffffff0000000000000000000000000000000000000000000000000000000082169050919050565b600073ffffffffffffffffffffffffffffffffffffffff82169050919050565b6000819050919050565b82818337600083830152505050565b60005b8381101561370a5780820151818401526020810190506136ef565b83811115613719576000848401525b50505050565b6000600282049050600182168061373757607f821691505b6020821081141561374b5761374a61385a565b5b50919050565b61375a8261392a565b810181811067ffffffffffffffff82111715613779576137786138e7565b5b80604052505050565b600061378d826136d3565b91507fffffffffffffffffffffffffffffffffffffffffffffffffffffffffffffffff8214156137c0576137bf6137fc565b5b600182019050919050565b60006137d6826136d3565b91506137e1836136d3565b9250826137f1576137f061382b565b5b828206905092915050565b7f4e487b7100000000000000000000000000000000000000000000000000000000600052601160045260246000fd5b7f4e487b7100000000000000000000000000000000000000000000000000000000600052601260045260246000fd5b7f4e487b7100000000000000000000000000000000000000000000000000000000600052602260045260246000fd5b7f4e487b7100000000000000000000000000000000000000000000000000000000600052603160045260246000fd5b7f4e487b7100000000000000000000000000000000000000000000000000000000600052603260045260246000fd5b7f4e487b7100000000000000000000000000000000000000000000000000000000600052604160045260246000fd5b600080fd5b600080fd5b600080fd5b600080fd5b6000601f19601f8301169050919050565b7f455243373231456e756d657261626c653a206f776e657220696e646578206f7560008201527f74206f6620626f756e6473000000000000000000000000000000000000000000602082015250565b7f4552433732313a207472616e7366657220746f206e6f6e20455243373231526560008201527f63656976657220696d706c656d656e7465720000000000000000000000000000602082015250565b7f4f776e61626c653a206e6577206f776e657220697320746865207a65726f206160008201527f6464726573730000000000000000000000000000000000000000000000000000602082015250565b7f4552433732313a207472616e736665722066726f6d20696e636f72726563742060008201527f6f776e6572000000000000000000000000000000000000000000000000000000602082015250565b7f4552433732313a20746f6b656e20616c7265616479206d696e74656400000000600082015250565b7f4552433732313a207472616e7366657220746f20746865207a65726f2061646460008201527f7265737300000000000000000000000000000000000000000000000000000000602082015250565b7f4552433732313a20617070726f766520746f2063616c6c657200000000000000600082015250565b7f4552433732313a2061646472657373207a65726f206973206e6f74206120766160008201527f6c6964206f776e65720000000000000000000000000000000000000000000000602082015250565b7f6d6178204e4654206c696d697420657863656564656400000000000000000000600082015250565b7f6d6178206d696e7420616d6f756e74207065722073657373696f6e206578636560008201527f6564656400000000000000000000000000000000000000000000000000000000602082015250565b7f4552433732313a20617070726f76652063616c6c6572206973206e6f7420746f60008201527f6b656e206f776e6572206e6f7220617070726f76656420666f7220616c6c0000602082015250565b7f4552433732313a206d696e7420746f20746865207a65726f2061646472657373600082015250565b7f4f776e61626c653a2063616c6c6572206973206e6f7420746865206f776e6572600082015250565b7f74686520636f6e74726163742069732070617573656400000000000000000000600082015250565b7f4552433732314d657461646174613a2055524920717565727920666f72206e6f60008201527f6e6578697374656e7420746f6b656e0000000000000000000000000000000000602082015250565b7f4552433732313a20696e76616c696420746f6b656e2049440000000000000000600082015250565b7f4552433732313a20617070726f76616c20746f2063757272656e74206f776e6560008201527f7200000000000000000000000000000000000000000000000000000000000000602082015250565b50565b7f696e73756666696369656e742066756e64730000000000000000000000000000600082015250565b7f455243373231456e756d657261626c653a20676c6f62616c20696e646578206f60008201527f7574206f6620626f756e64730000000000000000000000000000000000000000602082015250565b7f4552433732313a2063616c6c6572206973206e6f7420746f6b656e206f776e6560008201527f72206e6f7220617070726f766564000000000000000000000000000000000000602082015250565b7f6e65656420746f206d696e74206174206c656173742031204e46540000000000600082015250565b613e6c81613669565b8114613e7757600080fd5b50565b613e838161367b565b8114613e8e57600080fd5b50565b613e9a81613687565b8114613ea557600080fd5b50565b613eb1816136d3565b8114613ebc57600080fd5b5056fea2646970667358221220bb684381484136171fe603e42854cb1e351d32c0602b4d899836a3e6708bc62664736f6c63430008070033",
  "linkReferences": {},
  "deployedLinkReferences": {}
}