{
  "_format": "hh-sol-artifact-1",
  "contractName": "NFTStakingVault",
  "sourceName": "contracts/NFTStakingVault.sol",
  "abi": [
    {
      "inputs": [
        {
          "internalType": "address",
          "name": "_nftAddress",
          "type": "address"
        },
        {
          "internalType": "address",
          "name": "_tokenAddress",
          "type": "address"
        }
      ],
      "stateMutability": "nonpayable",
      "type": "constructor"
    },
    {
      "inputs": [],
      "name": "NFTStakingVault__ItemAlreadyStaked",
      "type": "error"
    },
    {
      "inputs": [],
      "name": "NFTStakingVault__NotItemOwner",
      "type": "error"
    },
    {
      "anonymous": false,
      "inputs": [
        {
          "indexed": false,
          "internalType": "address",
          "name": "owner",
          "type": "address"
        },
        {
          "indexed": false,
          "internalType": "uint256",
          "name": "reward",
          "type": "uint256"
        }
      ],
      "name": "Claimed",
      "type": "event"
    },
    {
      "anonymous": false,
      "inputs": [
        {
          "indexed": false,
          "internalType": "uint256",
          "name": "tokenId",
          "type": "uint256"
        },
        {
          "indexed": false,
          "internalType": "address",
          "name": "owner",
          "type": "address"
        },
        {
          "indexed": false,
          "internalType": "uint256",
          "name": "timestamp",
          "type": "uint256"
        }
      ],
      "name": "ItemStaked",
      "type": "event"
    },
    {
      "anonymous": false,
      "inputs": [
        {
          "indexed": false,
          "internalType": "uint256",
          "name": "tokenId",
          "type": "uint256"
        },
        {
          "indexed": false,
          "internalType": "address",
          "name": "owner",
          "type": "address"
        },
        {
          "indexed": false,
          "internalType": "uint256",
          "name": "timestamp",
          "type": "uint256"
        }
      ],
      "name": "ItemUnstaked",
      "type": "event"
    },
    {
      "anonymous": false,
      "inputs": [
        {
          "indexed": true,
          "internalType": "address",
          "name": "previousOwner",
          "type": "address"
        },
        {
          "indexed": true,
          "internalType": "address",
          "name": "newOwner",
          "type": "address"
        }
      ],
      "name": "OwnershipTransferred",
      "type": "event"
    },
    {
      "inputs": [
        {
          "internalType": "address",
          "name": "user",
          "type": "address"
        }
      ],
      "name": "balanceOf",
      "outputs": [
        {
          "internalType": "uint256",
          "name": "",
          "type": "uint256"
        }
      ],
      "stateMutability": "view",
      "type": "function"
    },
    {
      "inputs": [
        {
          "internalType": "uint256[]",
          "name": "tokenIds",
          "type": "uint256[]"
        }
      ],
      "name": "claim",
      "outputs": [],
      "stateMutability": "nonpayable",
      "type": "function"
    },
    {
      "inputs": [
        {
          "internalType": "uint256",
          "name": "_tokenId",
          "type": "uint256"
        }
      ],
      "name": "getRewardEarnedPerNft",
      "outputs": [
        {
          "internalType": "uint256",
          "name": "",
          "type": "uint256"
        }
      ],
      "stateMutability": "view",
      "type": "function"
    },
    {
      "inputs": [
        {
          "internalType": "address",
          "name": "user",
          "type": "address"
        }
      ],
      "name": "getTotalRewardEarned",
      "outputs": [
        {
          "internalType": "uint256",
          "name": "",
          "type": "uint256"
        }
      ],
      "stateMutability": "view",
      "type": "function"
    },
    {
      "inputs": [
        {
          "internalType": "address",
          "name": "",
          "type": "address"
        },
        {
          "internalType": "address",
          "name": "",
          "type": "address"
        },
        {
          "internalType": "uint256",
          "name": "",
          "type": "uint256"
        },
        {
          "internalType": "bytes",
          "name": "",
          "type": "bytes"
        }
      ],
      "name": "onERC721Received",
      "outputs": [
        {
          "internalType": "bytes4",
          "name": "",
          "type": "bytes4"
        }
      ],
      "stateMutability": "pure",
      "type": "function"
    },
    {
      "inputs": [],
      "name": "owner",
      "outputs": [
        {
          "internalType": "address",
          "name": "",
          "type": "address"
        }
      ],
      "stateMutability": "view",
      "type": "function"
    },
    {
      "inputs": [],
      "name": "renounceOwnership",
      "outputs": [],
      "stateMutability": "nonpayable",
      "type": "function"
    },
    {
      "inputs": [
        {
          "internalType": "uint256[]",
          "name": "tokenIds",
          "type": "uint256[]"
        }
      ],
      "name": "stake",
      "outputs": [],
      "stateMutability": "nonpayable",
      "type": "function"
    },
    {
      "inputs": [
        {
          "internalType": "address",
          "name": "user",
          "type": "address"
        }
      ],
      "name": "tokensOfOwner",
      "outputs": [
        {
          "internalType": "uint256[]",
          "name": "",
          "type": "uint256[]"
        }
      ],
      "stateMutability": "view",
      "type": "function"
    },
    {
      "inputs": [],
      "name": "totalItemsStaked",
      "outputs": [
        {
          "internalType": "uint256",
          "name": "",
          "type": "uint256"
        }
      ],
      "stateMutability": "view",
      "type": "function"
    },
    {
      "inputs": [
        {
          "internalType": "address",
          "name": "newOwner",
          "type": "address"
        }
      ],
      "name": "transferOwnership",
      "outputs": [],
      "stateMutability": "nonpayable",
      "type": "function"
    },
    {
      "inputs": [
        {
          "internalType": "uint256[]",
          "name": "tokenIds",
          "type": "uint256[]"
        }
      ],
      "name": "unstake",
      "outputs": [],
      "stateMutability": "nonpayable",
      "type": "function"
    }
  ],
  "bytecode": "0x60806040523480156200001157600080fd5b5060405162001be738038062001be78339818101604052810190620000379190620001c4565b620000576200004b620000e160201b60201c565b620000e960201b60201c565b81600260006101000a81548173ffffffffffffffffffffffffffffffffffffffff021916908373ffffffffffffffffffffffffffffffffffffffff16021790555080600360006101000a81548173ffffffffffffffffffffffffffffffffffffffff021916908373ffffffffffffffffffffffffffffffffffffffff16021790555050506200025e565b600033905090565b60008060009054906101000a900473ffffffffffffffffffffffffffffffffffffffff169050816000806101000a81548173ffffffffffffffffffffffffffffffffffffffff021916908373ffffffffffffffffffffffffffffffffffffffff1602179055508173ffffffffffffffffffffffffffffffffffffffff168173ffffffffffffffffffffffffffffffffffffffff167f8be0079c531659141344cd1fd0a4f28419497f9722a3daafe3b4186f6b6457e060405160405180910390a35050565b600081519050620001be8162000244565b92915050565b60008060408385031215620001de57620001dd6200023f565b5b6000620001ee85828601620001ad565b92505060206200020185828601620001ad565b9150509250929050565b600062000218826200021f565b9050919050565b600073ffffffffffffffffffffffffffffffffffffffff82169050919050565b600080fd5b6200024f816200020b565b81146200025b57600080fd5b50565b611979806200026e6000396000f3fe608060405234801561001057600080fd5b50600436106100b45760003560e01c806370a082311161007157806370a082311461019f578063715018a6146101cf5780638462151c146101d95780638da5cb5b14610209578063e449f34114610227578063f2fde38b14610243576100b4565b80630fbf0a93146100b9578063150b7a02146100d557806333e5877914610105578063454938e0146101235780635704589c146101535780636ba4c13814610183575b600080fd5b6100d360048036038101906100ce91906112ac565b61025f565b005b6100ef60048036038101906100ea9190611224565b6105c3565b6040516100fc919061150b565b60405180910390f35b61010d6105d8565b60405161011a9190611586565b60405180910390f35b61013d600480360381019061013891906111ca565b6105de565b60405161014a9190611586565b60405180910390f35b61016d600480360381019061016891906112f9565b6106a8565b60405161017a9190611586565b60405180910390f35b61019d600480360381019061019891906112ac565b61071d565b005b6101b960048036038101906101b491906111ca565b61072e565b6040516101c69190611586565b60405180910390f35b6101d761086a565b005b6101f360048036038101906101ee91906111ca565b61087e565b60405161020091906114e9565b60405180910390f35b610211610a63565b60405161021e919061146e565b60405180910390f35b610241600480360381019061023c91906112ac565b610a8c565b005b61025d600480360381019061025891906111ca565b610a9d565b005b60008060005b848490508110156105a857848482818110610283576102826117fd565b5b905060200201359250600073ffffffffffffffffffffffffffffffffffffffff166004600085815260200190815260200160002060000160009054906101000a900473ffffffffffffffffffffffffffffffffffffffff1673ffffffffffffffffffffffffffffffffffffffff1614610328576040517fc706acb600000000000000000000000000000000000000000000000000000000815260040160405180910390fd5b3373ffffffffffffffffffffffffffffffffffffffff16600260009054906101000a900473ffffffffffffffffffffffffffffffffffffffff1673ffffffffffffffffffffffffffffffffffffffff16636352211e856040518263ffffffff1660e01b815260040161039a9190611586565b60206040518083038186803b1580156103b257600080fd5b505afa1580156103c6573d6000803e3d6000fd5b505050506040513d601f19601f820116820180604052508101906103ea91906111f7565b73ffffffffffffffffffffffffffffffffffffffff1614610437576040517ff653d4c600000000000000000000000000000000000000000000000000000000815260040160405180910390fd5b600260009054906101000a900473ffffffffffffffffffffffffffffffffffffffff1673ffffffffffffffffffffffffffffffffffffffff166342842e0e3330866040518463ffffffff1660e01b815260040161049693929190611489565b600060405180830381600087803b1580156104b057600080fd5b505af11580156104c4573d6000803e3d6000fd5b5050505060405180604001604052803373ffffffffffffffffffffffffffffffffffffffff168152602001428152506004600085815260200190815260200160002060008201518160000160006101000a81548173ffffffffffffffffffffffffffffffffffffffff021916908373ffffffffffffffffffffffffffffffffffffffff160217905550602082015181600101559050507f718e21c56085c799f7e177a1bd6691cdbf9c929d9760133b991577c48871529083334260405161058d939291906115a1565b60405180910390a18180600101925050806001019050610265565b50806001546105b79190611622565b60018190555050505050565b600063150b7a0260e01b905095945050505050565b60015481565b6000806000806105ed8561087e565b9050600081511461069d5760005b815181101561068c5760006004600084848151811061061d5761061c6117fd565b5b6020026020010151815260200190815260200160002060010154905062015180670de0b6b3a764000082426106529190611703565b6101f461065f91906116a9565b61066991906116a9565b6106739190611678565b8561067e9190611622565b9450816001019150506105fb565b5060648361069a9190611678565b91505b819350505050919050565b6000806000806004600086815260200190815260200160002060010154905062015180670de0b6b3a764000082426106e09190611703565b6101f46106ed91906116a9565b6106f791906116a9565b6107019190611678565b92506064836107109190611678565b9150819350505050919050565b61072a3383836000610b21565b5050565b6000806000600260009054906101000a900473ffffffffffffffffffffffffffffffffffffffff1673ffffffffffffffffffffffffffffffffffffffff166318160ddd6040518163ffffffff1660e01b815260040160206040518083038186803b15801561079b57600080fd5b505afa1580156107af573d6000803e3d6000fd5b505050506040513d601f19601f820116820180604052508101906107d39190611326565b90506000600190505b81811161085f578473ffffffffffffffffffffffffffffffffffffffff166004600083815260200190815260200160002060000160009054906101000a900473ffffffffffffffffffffffffffffffffffffffff1673ffffffffffffffffffffffffffffffffffffffff161415610854576001830192505b8060010190506107dc565b508192505050919050565b610872610d6f565b61087c6000610ded565b565b6060600061088b8361072e565b90506000600260009054906101000a900473ffffffffffffffffffffffffffffffffffffffff1673ffffffffffffffffffffffffffffffffffffffff166318160ddd6040518163ffffffff1660e01b815260040160206040518083038186803b1580156108f757600080fd5b505afa15801561090b573d6000803e3d6000fd5b505050506040513d601f19601f8201168201806040525081019061092f9190611326565b905060008267ffffffffffffffff81111561094d5761094c61182c565b5b60405190808252806020026020018201604052801561097b5781602001602082028036833780820191505090505b5090506000808414156109945781945050505050610a5e565b6000600190505b838111610a55578673ffffffffffffffffffffffffffffffffffffffff166004600083815260200190815260200160002060000160009054906101000a900473ffffffffffffffffffffffffffffffffffffffff1673ffffffffffffffffffffffffffffffffffffffff161415610a355780838381518110610a2057610a1f6117fd565b5b60200260200101818152505081806001019250505b84821415610a4a578295505050505050610a5e565b80600101905061099b565b50819450505050505b919050565b60008060009054906101000a900473ffffffffffffffffffffffffffffffffffffffff16905090565b610a993383836001610b21565b5050565b610aa5610d6f565b600073ffffffffffffffffffffffffffffffffffffffff168173ffffffffffffffffffffffffffffffffffffffff161415610b15576040517f08c379a0000000000000000000000000000000000000000000000000000000008152600401610b0c90611526565b60405180910390fd5b610b1e81610ded565b50565b6000806000805b86869050811015610c7357868682818110610b4657610b456117fd565b5b9050602002013593508773ffffffffffffffffffffffffffffffffffffffff166004600086815260200190815260200160002060000160009054906101000a900473ffffffffffffffffffffffffffffffffffffffff1673ffffffffffffffffffffffffffffffffffffffff1614610bea576040517ff653d4c600000000000000000000000000000000000000000000000000000000815260040160405180910390fd5b60006004600086815260200190815260200160002060010154905062015180670de0b6b3a76400008242610c1e9190611703565b6101f4610c2b91906116a9565b610c3591906116a9565b610c3f9190611678565b84610c4a9190611622565b935042600460008781526020019081526020016000206001018190555081600101915050610b28565b50606482610c819190611678565b90507fd8138f8a3f377c5259ca548e70e4c2de94f129f5a11036a15b69513cba2b426a8782604051610cb49291906114c0565b60405180910390a160008114610d5457600360009054906101000a900473ffffffffffffffffffffffffffffffffffffffff1673ffffffffffffffffffffffffffffffffffffffff166340c10f1988836040518363ffffffff1660e01b8152600401610d219291906114c0565b600060405180830381600087803b158015610d3b57600080fd5b505af1158015610d4f573d6000803e3d6000fd5b505050505b8315610d6657610d65878787610eb1565b5b50505050505050565b610d776110c2565b73ffffffffffffffffffffffffffffffffffffffff16610d95610a63565b73ffffffffffffffffffffffffffffffffffffffff1614610deb576040517f08c379a0000000000000000000000000000000000000000000000000000000008152600401610de290611566565b60405180910390fd5b565b60008060009054906101000a900473ffffffffffffffffffffffffffffffffffffffff169050816000806101000a81548173ffffffffffffffffffffffffffffffffffffffff021916908373ffffffffffffffffffffffffffffffffffffffff1602179055508173ffffffffffffffffffffffffffffffffffffffff168173ffffffffffffffffffffffffffffffffffffffff167f8be0079c531659141344cd1fd0a4f28419497f9722a3daafe3b4186f6b6457e060405160405180910390a35050565b60008060005b848490508110156110a657848482818110610ed557610ed46117fd565b5b9050602002013592508573ffffffffffffffffffffffffffffffffffffffff166004600085815260200190815260200160002060000160009054906101000a900473ffffffffffffffffffffffffffffffffffffffff1673ffffffffffffffffffffffffffffffffffffffff1614610f82576040517f08c379a0000000000000000000000000000000000000000000000000000000008152600401610f7990611546565b60405180910390fd5b600260009054906101000a900473ffffffffffffffffffffffffffffffffffffffff1673ffffffffffffffffffffffffffffffffffffffff166342842e0e3088866040518463ffffffff1660e01b8152600401610fe193929190611489565b600060405180830381600087803b158015610ffb57600080fd5b505af115801561100f573d6000803e3d6000fd5b5050505060046000848152602001908152602001600020600080820160006101000a81549073ffffffffffffffffffffffffffffffffffffffff0219169055600182016000905550507f175dc19fb4fe98420fd7e191684ecdc746cb34c7b69706c3713328d25f7be20583874260405161108b939291906115a1565b60405180910390a18180600101925050806001019050610eb7565b50806001546110b59190611703565b6001819055505050505050565b600033905090565b6000813590506110d981611915565b92915050565b6000815190506110ee81611915565b92915050565b60008083601f84011261110a57611109611860565b5b8235905067ffffffffffffffff8111156111275761112661185b565b5b60208301915083602082028301111561114357611142611865565b5b9250929050565b60008083601f8401126111605761115f611860565b5b8235905067ffffffffffffffff81111561117d5761117c61185b565b5b60208301915083600182028301111561119957611198611865565b5b9250929050565b6000813590506111af8161192c565b92915050565b6000815190506111c48161192c565b92915050565b6000602082840312156111e0576111df61186f565b5b60006111ee848285016110ca565b91505092915050565b60006020828403121561120d5761120c61186f565b5b600061121b848285016110df565b91505092915050565b6000806000806000608086880312156112405761123f61186f565b5b600061124e888289016110ca565b955050602061125f888289016110ca565b9450506040611270888289016111a0565b935050606086013567ffffffffffffffff8111156112915761129061186a565b5b61129d8882890161114a565b92509250509295509295909350565b600080602083850312156112c3576112c261186f565b5b600083013567ffffffffffffffff8111156112e1576112e061186a565b5b6112ed858286016110f4565b92509250509250929050565b60006020828403121561130f5761130e61186f565b5b600061131d848285016111a0565b91505092915050565b60006020828403121561133c5761133b61186f565b5b600061134a848285016111b5565b91505092915050565b600061135f8383611450565b60208301905092915050565b61137481611737565b82525050565b6000611385826115e8565b61138f8185611600565b935061139a836115d8565b8060005b838110156113cb5781516113b28882611353565b97506113bd836115f3565b92505060018101905061139e565b5085935050505092915050565b6113e181611749565b82525050565b60006113f4602683611611565b91506113ff82611874565b604082019050919050565b6000611417600983611611565b9150611422826118c3565b602082019050919050565b600061143a602083611611565b9150611445826118ec565b602082019050919050565b61145981611795565b82525050565b61146881611795565b82525050565b6000602082019050611483600083018461136b565b92915050565b600060608201905061149e600083018661136b565b6114ab602083018561136b565b6114b8604083018461145f565b949350505050565b60006040820190506114d5600083018561136b565b6114e2602083018461145f565b9392505050565b60006020820190508181036000830152611503818461137a565b905092915050565b600060208201905061152060008301846113d8565b92915050565b6000602082019050818103600083015261153f816113e7565b9050919050565b6000602082019050818103600083015261155f8161140a565b9050919050565b6000602082019050818103600083015261157f8161142d565b9050919050565b600060208201905061159b600083018461145f565b92915050565b60006060820190506115b6600083018661145f565b6115c3602083018561136b565b6115d0604083018461145f565b949350505050565b6000819050602082019050919050565b600081519050919050565b6000602082019050919050565b600082825260208201905092915050565b600082825260208201905092915050565b600061162d82611795565b915061163883611795565b9250827fffffffffffffffffffffffffffffffffffffffffffffffffffffffffffffffff0382111561166d5761166c61179f565b5b828201905092915050565b600061168382611795565b915061168e83611795565b92508261169e5761169d6117ce565b5b828204905092915050565b60006116b482611795565b91506116bf83611795565b9250817fffffffffffffffffffffffffffffffffffffffffffffffffffffffffffffffff04831182151516156116f8576116f761179f565b5b828202905092915050565b600061170e82611795565b915061171983611795565b92508282101561172c5761172b61179f565b5b828203905092915050565b600061174282611775565b9050919050565b60007fffffffff0000000000000000000000000000000000000000000000000000000082169050919050565b600073ffffffffffffffffffffffffffffffffffffffff82169050919050565b6000819050919050565b7f4e487b7100000000000000000000000000000000000000000000000000000000600052601160045260246000fd5b7f4e487b7100000000000000000000000000000000000000000000000000000000600052601260045260246000fd5b7f4e487b7100000000000000000000000000000000000000000000000000000000600052603260045260246000fd5b7f4e487b7100000000000000000000000000000000000000000000000000000000600052604160045260246000fd5b600080fd5b600080fd5b600080fd5b600080fd5b600080fd5b7f4f776e61626c653a206e6577206f776e657220697320746865207a65726f206160008201527f6464726573730000000000000000000000000000000000000000000000000000602082015250565b7f4e6f74204f776e65720000000000000000000000000000000000000000000000600082015250565b7f4f776e61626c653a2063616c6c6572206973206e6f7420746865206f776e6572600082015250565b61191e81611737565b811461192957600080fd5b50565b61193581611795565b811461194057600080fd5b5056fea2646970667358221220de8b06c9feec71f30c1fa8f61afbfd79081a7c51a4519616398b54296f31235364736f6c63430008070033",
  "linkReferences": {},
  "deployedLinkReferences": {}
}