{
  "_format": "hh-sol-artifact-1",
  "contractName": "NFTStakingVault",
  "sourceName": "contracts/NFTStakingVault.sol",
  "abi": [
    {
      "inputs": [
        {
          "internalType": "address",
          "name": "_nftAddress",
          "type": "address"
        },
        {
          "internalType": "address",
          "name": "_tokenAddress",
          "type": "address"
        }
      ],
      "stateMutability": "nonpayable",
      "type": "constructor"
    },
    {
      "anonymous": false,
      "inputs": [
        {
          "indexed": false,
          "internalType": "address",
          "name": "owner",
          "type": "address"
        },
        {
          "indexed": false,
          "internalType": "uint256",
          "name": "reward",
          "type": "uint256"
        }
      ],
      "name": "Claimed",
      "type": "event"
    },
    {
      "anonymous": false,
      "inputs": [
        {
          "indexed": false,
          "internalType": "uint256",
          "name": "tokenId",
          "type": "uint256"
        },
        {
          "indexed": false,
          "internalType": "address",
          "name": "owner",
          "type": "address"
        },
        {
          "indexed": false,
          "internalType": "uint256",
          "name": "timestamp",
          "type": "uint256"
        }
      ],
      "name": "ItemStaked",
      "type": "event"
    },
    {
      "anonymous": false,
      "inputs": [
        {
          "indexed": false,
          "internalType": "uint256",
          "name": "tokenId",
          "type": "uint256"
        },
        {
          "indexed": false,
          "internalType": "address",
          "name": "owner",
          "type": "address"
        },
        {
          "indexed": false,
          "internalType": "uint256",
          "name": "timestamp",
          "type": "uint256"
        }
      ],
      "name": "ItemUnstaked",
      "type": "event"
    },
    {
      "anonymous": false,
      "inputs": [
        {
          "indexed": true,
          "internalType": "address",
          "name": "previousOwner",
          "type": "address"
        },
        {
          "indexed": true,
          "internalType": "address",
          "name": "newOwner",
          "type": "address"
        }
      ],
      "name": "OwnershipTransferred",
      "type": "event"
    },
    {
      "inputs": [
        {
          "internalType": "address",
          "name": "user",
          "type": "address"
        }
      ],
      "name": "balanceOf",
      "outputs": [
        {
          "internalType": "uint256",
          "name": "",
          "type": "uint256"
        }
      ],
      "stateMutability": "view",
      "type": "function"
    },
    {
      "inputs": [
        {
          "internalType": "uint256[]",
          "name": "tokenIds",
          "type": "uint256[]"
        }
      ],
      "name": "claim",
      "outputs": [],
      "stateMutability": "nonpayable",
      "type": "function"
    },
    {
      "inputs": [
        {
          "internalType": "uint256",
          "name": "_tokenId",
          "type": "uint256"
        }
      ],
      "name": "getRewardEarnedPerNft",
      "outputs": [
        {
          "internalType": "uint256",
          "name": "",
          "type": "uint256"
        }
      ],
      "stateMutability": "view",
      "type": "function"
    },
    {
      "inputs": [
        {
          "internalType": "address",
          "name": "user",
          "type": "address"
        }
      ],
      "name": "getTotalRewardEarned",
      "outputs": [
        {
          "internalType": "uint256",
          "name": "",
          "type": "uint256"
        }
      ],
      "stateMutability": "view",
      "type": "function"
    },
    {
      "inputs": [
        {
          "internalType": "address",
          "name": "",
          "type": "address"
        },
        {
          "internalType": "address",
          "name": "",
          "type": "address"
        },
        {
          "internalType": "uint256",
          "name": "",
          "type": "uint256"
        },
        {
          "internalType": "bytes",
          "name": "",
          "type": "bytes"
        }
      ],
      "name": "onERC721Received",
      "outputs": [
        {
          "internalType": "bytes4",
          "name": "",
          "type": "bytes4"
        }
      ],
      "stateMutability": "pure",
      "type": "function"
    },
    {
      "inputs": [],
      "name": "owner",
      "outputs": [
        {
          "internalType": "address",
          "name": "",
          "type": "address"
        }
      ],
      "stateMutability": "view",
      "type": "function"
    },
    {
      "inputs": [],
      "name": "renounceOwnership",
      "outputs": [],
      "stateMutability": "nonpayable",
      "type": "function"
    },
    {
      "inputs": [
        {
          "internalType": "uint256[]",
          "name": "tokenIds",
          "type": "uint256[]"
        }
      ],
      "name": "stake",
      "outputs": [],
      "stateMutability": "nonpayable",
      "type": "function"
    },
    {
      "inputs": [
        {
          "internalType": "address",
          "name": "user",
          "type": "address"
        }
      ],
      "name": "tokensOfOwner",
      "outputs": [
        {
          "internalType": "uint256[]",
          "name": "",
          "type": "uint256[]"
        }
      ],
      "stateMutability": "view",
      "type": "function"
    },
    {
      "inputs": [],
      "name": "totalItemsStaked",
      "outputs": [
        {
          "internalType": "uint256",
          "name": "",
          "type": "uint256"
        }
      ],
      "stateMutability": "view",
      "type": "function"
    },
    {
      "inputs": [
        {
          "internalType": "address",
          "name": "newOwner",
          "type": "address"
        }
      ],
      "name": "transferOwnership",
      "outputs": [],
      "stateMutability": "nonpayable",
      "type": "function"
    },
    {
      "inputs": [
        {
          "internalType": "uint256[]",
          "name": "tokenIds",
          "type": "uint256[]"
        }
      ],
      "name": "unstake",
      "outputs": [],
      "stateMutability": "nonpayable",
      "type": "function"
    }
  ],
  "bytecode": "0x60806040523480156200001157600080fd5b5060405162001cb038038062001cb08339818101604052810190620000379190620001c4565b620000576200004b620000e160201b60201c565b620000e960201b60201c565b81600260006101000a81548173ffffffffffffffffffffffffffffffffffffffff021916908373ffffffffffffffffffffffffffffffffffffffff16021790555080600360006101000a81548173ffffffffffffffffffffffffffffffffffffffff021916908373ffffffffffffffffffffffffffffffffffffffff16021790555050506200025e565b600033905090565b60008060009054906101000a900473ffffffffffffffffffffffffffffffffffffffff169050816000806101000a81548173ffffffffffffffffffffffffffffffffffffffff021916908373ffffffffffffffffffffffffffffffffffffffff1602179055508173ffffffffffffffffffffffffffffffffffffffff168173ffffffffffffffffffffffffffffffffffffffff167f8be0079c531659141344cd1fd0a4f28419497f9722a3daafe3b4186f6b6457e060405160405180910390a35050565b600081519050620001be8162000244565b92915050565b60008060408385031215620001de57620001dd6200023f565b5b6000620001ee85828601620001ad565b92505060206200020185828601620001ad565b9150509250929050565b600062000218826200021f565b9050919050565b600073ffffffffffffffffffffffffffffffffffffffff82169050919050565b600080fd5b6200024f816200020b565b81146200025b57600080fd5b50565b611a42806200026e6000396000f3fe608060405234801561001057600080fd5b50600436106100b45760003560e01c806370a082311161007157806370a082311461019f578063715018a6146101cf5780638462151c146101d95780638da5cb5b14610209578063e449f34114610227578063f2fde38b14610243576100b4565b80630fbf0a93146100b9578063150b7a02146100d557806333e5877914610105578063454938e0146101235780635704589c146101535780636ba4c13814610183575b600080fd5b6100d360048036038101906100ce9190611254565b61025f565b005b6100ef60048036038101906100ea91906111cc565b6105d5565b6040516100fc91906114f9565b60405180910390f35b61010d6105ea565b60405161011a91906115b4565b60405180910390f35b61013d60048036038101906101389190611172565b6105f0565b60405161014a91906115b4565b60405180910390f35b61016d600480360381019061016891906112a1565b61068b565b60405161017a91906115b4565b60405180910390f35b61019d60048036038101906101989190611254565b6106db565b005b6101b960048036038101906101b49190611172565b6106ec565b6040516101c691906115b4565b60405180910390f35b6101d7610837565b005b6101f360048036038101906101ee9190611172565b61084b565b60405161020091906114d7565b60405180910390f35b610211610a27565b60405161021e919061145c565b60405180910390f35b610241600480360381019061023c9190611254565b610a50565b005b61025d60048036038101906102589190611172565b610a61565b005b60008060005b848490508110156105ba5784848281811061028357610282611874565b5b905060200201359250600073ffffffffffffffffffffffffffffffffffffffff166004600085815260200190815260200160002060000160009054906101000a900473ffffffffffffffffffffffffffffffffffffffff1673ffffffffffffffffffffffffffffffffffffffff1614610331576040517f08c379a000000000000000000000000000000000000000000000000000000000815260040161032890611594565b60405180910390fd5b3373ffffffffffffffffffffffffffffffffffffffff16600260009054906101000a900473ffffffffffffffffffffffffffffffffffffffff1673ffffffffffffffffffffffffffffffffffffffff16636352211e856040518263ffffffff1660e01b81526004016103a391906115b4565b60206040518083038186803b1580156103bb57600080fd5b505afa1580156103cf573d6000803e3d6000fd5b505050506040513d601f19601f820116820180604052508101906103f3919061119f565b73ffffffffffffffffffffffffffffffffffffffff1614610449576040517f08c379a000000000000000000000000000000000000000000000000000000000815260040161044090611554565b60405180910390fd5b600260009054906101000a900473ffffffffffffffffffffffffffffffffffffffff1673ffffffffffffffffffffffffffffffffffffffff166342842e0e3330866040518463ffffffff1660e01b81526004016104a893929190611477565b600060405180830381600087803b1580156104c257600080fd5b505af11580156104d6573d6000803e3d6000fd5b5050505060405180604001604052803373ffffffffffffffffffffffffffffffffffffffff168152602001428152506004600085815260200190815260200160002060008201518160000160006101000a81548173ffffffffffffffffffffffffffffffffffffffff021916908373ffffffffffffffffffffffffffffffffffffffff160217905550602082015181600101559050507f718e21c56085c799f7e177a1bd6691cdbf9c929d9760133b991577c48871529083334260405161059f939291906115cf565b60405180910390a18180600101925050806001019050610265565b50806001546105c99190611650565b60018190555050505050565b600063150b7a0260e01b905095945050505050565b60015481565b60008060006105fe8461084b565b905060005b81518110156106805760006004600084848151811061062557610624611874565b5b602002602001015181526020019081526020016000206001015490506201518081426106519190611731565b61065b91906116a6565b600a61066791906116d7565b846106729190611650565b935081600101915050610603565b508192505050919050565b6000806000600460008581526020019081526020016000206001015490506201518081426106b99190611731565b600a6106c591906116d7565b6106cf91906116a6565b91508192505050919050565b6106e83383836000610ae5565b5050565b6000806000600260009054906101000a900473ffffffffffffffffffffffffffffffffffffffff1673ffffffffffffffffffffffffffffffffffffffff166318160ddd6040518163ffffffff1660e01b815260040160206040518083038186803b15801561075957600080fd5b505afa15801561076d573d6000803e3d6000fd5b505050506040513d601f19601f8201168201806040525081019061079191906112ce565b90506000600190505b81811161082c578473ffffffffffffffffffffffffffffffffffffffff166004600083815260200190815260200160002060000160009054906101000a900473ffffffffffffffffffffffffffffffffffffffff1673ffffffffffffffffffffffffffffffffffffffff16141561081b576001836108189190611650565b92505b80610825906117cd565b905061079a565b508192505050919050565b61083f610d17565b6108496000610d95565b565b60606000610858836106ec565b90506000600260009054906101000a900473ffffffffffffffffffffffffffffffffffffffff1673ffffffffffffffffffffffffffffffffffffffff166318160ddd6040518163ffffffff1660e01b815260040160206040518083038186803b1580156108c457600080fd5b505afa1580156108d8573d6000803e3d6000fd5b505050506040513d601f19601f820116820180604052508101906108fc91906112ce565b905060008267ffffffffffffffff81111561091a576109196118a3565b5b6040519080825280602002602001820160405280156109485781602001602082028036833780820191505090505b509050600080600190505b838111610a19578673ffffffffffffffffffffffffffffffffffffffff166004600083815260200190815260200160002060000160009054906101000a900473ffffffffffffffffffffffffffffffffffffffff1673ffffffffffffffffffffffffffffffffffffffff1614156109f357808383815181106109d8576109d7611874565b5b60200260200101818152505081806109ef906117cd565b9250505b84821415610a08578295505050505050610a22565b80610a12906117cd565b9050610953565b50819450505050505b919050565b60008060009054906101000a900473ffffffffffffffffffffffffffffffffffffffff16905090565b610a5d3383836001610ae5565b5050565b610a69610d17565b600073ffffffffffffffffffffffffffffffffffffffff168173ffffffffffffffffffffffffffffffffffffffff161415610ad9576040517f08c379a0000000000000000000000000000000000000000000000000000000008152600401610ad090611514565b60405180910390fd5b610ae281610d95565b50565b60008060005b85859050811015610c2b57858582818110610b0957610b08611874565b5b9050602002013592508673ffffffffffffffffffffffffffffffffffffffff166004600085815260200190815260200160002060000160009054906101000a900473ffffffffffffffffffffffffffffffffffffffff1673ffffffffffffffffffffffffffffffffffffffff1614610bb6576040517f08c379a0000000000000000000000000000000000000000000000000000000008152600401610bad90611534565b60405180910390fd5b600060046000858152602001908152602001600020600101549050620151808142610be19190611731565b600a610bed91906116d7565b610bf791906116a6565b83610c029190611650565b925042600460008681526020019081526020016000206001018190555081600101915050610aeb565b507fd8138f8a3f377c5259ca548e70e4c2de94f129f5a11036a15b69513cba2b426a8682604051610c5d9291906114ae565b60405180910390a160008114610cfd57600360009054906101000a900473ffffffffffffffffffffffffffffffffffffffff1673ffffffffffffffffffffffffffffffffffffffff166340c10f1987836040518363ffffffff1660e01b8152600401610cca9291906114ae565b600060405180830381600087803b158015610ce457600080fd5b505af1158015610cf8573d6000803e3d6000fd5b505050505b8215610d0f57610d0e868686610e59565b5b505050505050565b610d1f61106a565b73ffffffffffffffffffffffffffffffffffffffff16610d3d610a27565b73ffffffffffffffffffffffffffffffffffffffff1614610d93576040517f08c379a0000000000000000000000000000000000000000000000000000000008152600401610d8a90611574565b60405180910390fd5b565b60008060009054906101000a900473ffffffffffffffffffffffffffffffffffffffff169050816000806101000a81548173ffffffffffffffffffffffffffffffffffffffff021916908373ffffffffffffffffffffffffffffffffffffffff1602179055508173ffffffffffffffffffffffffffffffffffffffff168173ffffffffffffffffffffffffffffffffffffffff167f8be0079c531659141344cd1fd0a4f28419497f9722a3daafe3b4186f6b6457e060405160405180910390a35050565b60008060005b8484905081101561104e57848482818110610e7d57610e7c611874565b5b9050602002013592508573ffffffffffffffffffffffffffffffffffffffff166004600085815260200190815260200160002060000160009054906101000a900473ffffffffffffffffffffffffffffffffffffffff1673ffffffffffffffffffffffffffffffffffffffff1614610f2a576040517f08c379a0000000000000000000000000000000000000000000000000000000008152600401610f2190611534565b60405180910390fd5b600260009054906101000a900473ffffffffffffffffffffffffffffffffffffffff1673ffffffffffffffffffffffffffffffffffffffff166342842e0e3088866040518463ffffffff1660e01b8152600401610f8993929190611477565b600060405180830381600087803b158015610fa357600080fd5b505af1158015610fb7573d6000803e3d6000fd5b5050505060046000848152602001908152602001600020600080820160006101000a81549073ffffffffffffffffffffffffffffffffffffffff0219169055600182016000905550507f175dc19fb4fe98420fd7e191684ecdc746cb34c7b69706c3713328d25f7be205838742604051611033939291906115cf565b60405180910390a18180600101925050806001019050610e5f565b508060015461105d9190611731565b6001819055505050505050565b600033905090565b600081359050611081816119de565b92915050565b600081519050611096816119de565b92915050565b60008083601f8401126110b2576110b16118d7565b5b8235905067ffffffffffffffff8111156110cf576110ce6118d2565b5b6020830191508360208202830111156110eb576110ea6118dc565b5b9250929050565b60008083601f840112611108576111076118d7565b5b8235905067ffffffffffffffff811115611125576111246118d2565b5b602083019150836001820283011115611141576111406118dc565b5b9250929050565b600081359050611157816119f5565b92915050565b60008151905061116c816119f5565b92915050565b600060208284031215611188576111876118e6565b5b600061119684828501611072565b91505092915050565b6000602082840312156111b5576111b46118e6565b5b60006111c384828501611087565b91505092915050565b6000806000806000608086880312156111e8576111e76118e6565b5b60006111f688828901611072565b955050602061120788828901611072565b945050604061121888828901611148565b935050606086013567ffffffffffffffff811115611239576112386118e1565b5b611245888289016110f2565b92509250509295509295909350565b6000806020838503121561126b5761126a6118e6565b5b600083013567ffffffffffffffff811115611289576112886118e1565b5b6112958582860161109c565b92509250509250929050565b6000602082840312156112b7576112b66118e6565b5b60006112c584828501611148565b91505092915050565b6000602082840312156112e4576112e36118e6565b5b60006112f28482850161115d565b91505092915050565b6000611307838361143e565b60208301905092915050565b61131c81611765565b82525050565b600061132d82611616565b611337818561162e565b935061134283611606565b8060005b8381101561137357815161135a88826112fb565b975061136583611621565b925050600181019050611346565b5085935050505092915050565b61138981611777565b82525050565b600061139c60268361163f565b91506113a7826118eb565b604082019050919050565b60006113bf60098361163f565b91506113ca8261193a565b602082019050919050565b60006113e2600e8361163f565b91506113ed82611963565b602082019050919050565b600061140560208361163f565b91506114108261198c565b602082019050919050565b6000611428600e8361163f565b9150611433826119b5565b602082019050919050565b611447816117c3565b82525050565b611456816117c3565b82525050565b60006020820190506114716000830184611313565b92915050565b600060608201905061148c6000830186611313565b6114996020830185611313565b6114a6604083018461144d565b949350505050565b60006040820190506114c36000830185611313565b6114d0602083018461144d565b9392505050565b600060208201905081810360008301526114f18184611322565b905092915050565b600060208201905061150e6000830184611380565b92915050565b6000602082019050818103600083015261152d8161138f565b9050919050565b6000602082019050818103600083015261154d816113b2565b9050919050565b6000602082019050818103600083015261156d816113d5565b9050919050565b6000602082019050818103600083015261158d816113f8565b9050919050565b600060208201905081810360008301526115ad8161141b565b9050919050565b60006020820190506115c9600083018461144d565b92915050565b60006060820190506115e4600083018661144d565b6115f16020830185611313565b6115fe604083018461144d565b949350505050565b6000819050602082019050919050565b600081519050919050565b6000602082019050919050565b600082825260208201905092915050565b600082825260208201905092915050565b600061165b826117c3565b9150611666836117c3565b9250827fffffffffffffffffffffffffffffffffffffffffffffffffffffffffffffffff0382111561169b5761169a611816565b5b828201905092915050565b60006116b1826117c3565b91506116bc836117c3565b9250826116cc576116cb611845565b5b828204905092915050565b60006116e2826117c3565b91506116ed836117c3565b9250817fffffffffffffffffffffffffffffffffffffffffffffffffffffffffffffffff048311821515161561172657611725611816565b5b828202905092915050565b600061173c826117c3565b9150611747836117c3565b92508282101561175a57611759611816565b5b828203905092915050565b6000611770826117a3565b9050919050565b60007fffffffff0000000000000000000000000000000000000000000000000000000082169050919050565b600073ffffffffffffffffffffffffffffffffffffffff82169050919050565b6000819050919050565b60006117d8826117c3565b91507fffffffffffffffffffffffffffffffffffffffffffffffffffffffffffffffff82141561180b5761180a611816565b5b600182019050919050565b7f4e487b7100000000000000000000000000000000000000000000000000000000600052601160045260246000fd5b7f4e487b7100000000000000000000000000000000000000000000000000000000600052601260045260246000fd5b7f4e487b7100000000000000000000000000000000000000000000000000000000600052603260045260246000fd5b7f4e487b7100000000000000000000000000000000000000000000000000000000600052604160045260246000fd5b600080fd5b600080fd5b600080fd5b600080fd5b600080fd5b7f4f776e61626c653a206e6577206f776e657220697320746865207a65726f206160008201527f6464726573730000000000000000000000000000000000000000000000000000602082015250565b7f4e6f74204f776e65720000000000000000000000000000000000000000000000600082015250565b7f4e6f6e204974656d204f776e6572000000000000000000000000000000000000600082015250565b7f4f776e61626c653a2063616c6c6572206973206e6f7420746865206f776e6572600082015250565b7f416c7265616479205374616b6564000000000000000000000000000000000000600082015250565b6119e781611765565b81146119f257600080fd5b50565b6119fe816117c3565b8114611a0957600080fd5b5056fea26469706673582212208e0faf90902134606837196ca9af882d58efc0fbfb4ecb0aa19bff33a0a6bc9b64736f6c63430008070033",
  "linkReferences": {},
  "deployedLinkReferences": {}
}