{
  "_format": "hh-sol-artifact-1",
  "contractName": "KryptoPunksToken",
  "sourceName": "contracts/KryptoPunksToken.sol",
  "abi": [
    {
      "inputs": [],
      "stateMutability": "nonpayable",
      "type": "constructor"
    },
    {
      "inputs": [],
      "name": "KryptoPunksToken__OnlyControllersCanMint",
      "type": "error"
    },
    {
      "anonymous": false,
      "inputs": [
        {
          "indexed": true,
          "internalType": "address",
          "name": "owner",
          "type": "address"
        },
        {
          "indexed": true,
          "internalType": "address",
          "name": "spender",
          "type": "address"
        },
        {
          "indexed": false,
          "internalType": "uint256",
          "name": "value",
          "type": "uint256"
        }
      ],
      "name": "Approval",
      "type": "event"
    },
    {
      "anonymous": false,
      "inputs": [
        {
          "indexed": true,
          "internalType": "address",
          "name": "previousOwner",
          "type": "address"
        },
        {
          "indexed": true,
          "internalType": "address",
          "name": "newOwner",
          "type": "address"
        }
      ],
      "name": "OwnershipTransferred",
      "type": "event"
    },
    {
      "anonymous": false,
      "inputs": [
        {
          "indexed": true,
          "internalType": "address",
          "name": "from",
          "type": "address"
        },
        {
          "indexed": true,
          "internalType": "address",
          "name": "to",
          "type": "address"
        },
        {
          "indexed": false,
          "internalType": "uint256",
          "name": "value",
          "type": "uint256"
        }
      ],
      "name": "Transfer",
      "type": "event"
    },
    {
      "inputs": [
        {
          "internalType": "address",
          "name": "owner",
          "type": "address"
        },
        {
          "internalType": "address",
          "name": "spender",
          "type": "address"
        }
      ],
      "name": "allowance",
      "outputs": [
        {
          "internalType": "uint256",
          "name": "",
          "type": "uint256"
        }
      ],
      "stateMutability": "view",
      "type": "function"
    },
    {
      "inputs": [
        {
          "internalType": "address",
          "name": "spender",
          "type": "address"
        },
        {
          "internalType": "uint256",
          "name": "amount",
          "type": "uint256"
        }
      ],
      "name": "approve",
      "outputs": [
        {
          "internalType": "bool",
          "name": "",
          "type": "bool"
        }
      ],
      "stateMutability": "nonpayable",
      "type": "function"
    },
    {
      "inputs": [
        {
          "internalType": "address",
          "name": "account",
          "type": "address"
        }
      ],
      "name": "balanceOf",
      "outputs": [
        {
          "internalType": "uint256",
          "name": "",
          "type": "uint256"
        }
      ],
      "stateMutability": "view",
      "type": "function"
    },
    {
      "inputs": [
        {
          "internalType": "uint256",
          "name": "amount",
          "type": "uint256"
        }
      ],
      "name": "burn",
      "outputs": [],
      "stateMutability": "nonpayable",
      "type": "function"
    },
    {
      "inputs": [
        {
          "internalType": "address",
          "name": "account",
          "type": "address"
        },
        {
          "internalType": "uint256",
          "name": "amount",
          "type": "uint256"
        }
      ],
      "name": "burnFrom",
      "outputs": [],
      "stateMutability": "nonpayable",
      "type": "function"
    },
    {
      "inputs": [],
      "name": "decimals",
      "outputs": [
        {
          "internalType": "uint8",
          "name": "",
          "type": "uint8"
        }
      ],
      "stateMutability": "view",
      "type": "function"
    },
    {
      "inputs": [
        {
          "internalType": "address",
          "name": "spender",
          "type": "address"
        },
        {
          "internalType": "uint256",
          "name": "subtractedValue",
          "type": "uint256"
        }
      ],
      "name": "decreaseAllowance",
      "outputs": [
        {
          "internalType": "bool",
          "name": "",
          "type": "bool"
        }
      ],
      "stateMutability": "nonpayable",
      "type": "function"
    },
    {
      "inputs": [
        {
          "internalType": "address",
          "name": "spender",
          "type": "address"
        },
        {
          "internalType": "uint256",
          "name": "addedValue",
          "type": "uint256"
        }
      ],
      "name": "increaseAllowance",
      "outputs": [
        {
          "internalType": "bool",
          "name": "",
          "type": "bool"
        }
      ],
      "stateMutability": "nonpayable",
      "type": "function"
    },
    {
      "inputs": [
        {
          "internalType": "address",
          "name": "to",
          "type": "address"
        },
        {
          "internalType": "uint256",
          "name": "amount",
          "type": "uint256"
        }
      ],
      "name": "mint",
      "outputs": [],
      "stateMutability": "nonpayable",
      "type": "function"
    },
    {
      "inputs": [],
      "name": "name",
      "outputs": [
        {
          "internalType": "string",
          "name": "",
          "type": "string"
        }
      ],
      "stateMutability": "view",
      "type": "function"
    },
    {
      "inputs": [],
      "name": "owner",
      "outputs": [
        {
          "internalType": "address",
          "name": "",
          "type": "address"
        }
      ],
      "stateMutability": "view",
      "type": "function"
    },
    {
      "inputs": [],
      "name": "renounceOwnership",
      "outputs": [],
      "stateMutability": "nonpayable",
      "type": "function"
    },
    {
      "inputs": [
        {
          "internalType": "address",
          "name": "controller",
          "type": "address"
        },
        {
          "internalType": "bool",
          "name": "_state",
          "type": "bool"
        }
      ],
      "name": "setController",
      "outputs": [],
      "stateMutability": "payable",
      "type": "function"
    },
    {
      "inputs": [],
      "name": "symbol",
      "outputs": [
        {
          "internalType": "string",
          "name": "",
          "type": "string"
        }
      ],
      "stateMutability": "view",
      "type": "function"
    },
    {
      "inputs": [],
      "name": "totalSupply",
      "outputs": [
        {
          "internalType": "uint256",
          "name": "",
          "type": "uint256"
        }
      ],
      "stateMutability": "view",
      "type": "function"
    },
    {
      "inputs": [
        {
          "internalType": "address",
          "name": "to",
          "type": "address"
        },
        {
          "internalType": "uint256",
          "name": "amount",
          "type": "uint256"
        }
      ],
      "name": "transfer",
      "outputs": [
        {
          "internalType": "bool",
          "name": "",
          "type": "bool"
        }
      ],
      "stateMutability": "nonpayable",
      "type": "function"
    },
    {
      "inputs": [
        {
          "internalType": "address",
          "name": "from",
          "type": "address"
        },
        {
          "internalType": "address",
          "name": "to",
          "type": "address"
        },
        {
          "internalType": "uint256",
          "name": "amount",
          "type": "uint256"
        }
      ],
      "name": "transferFrom",
      "outputs": [
        {
          "internalType": "bool",
          "name": "",
          "type": "bool"
        }
      ],
      "stateMutability": "nonpayable",
      "type": "function"
    },
    {
      "inputs": [
        {
          "internalType": "address",
          "name": "newOwner",
          "type": "address"
        }
      ],
      "name": "transferOwnership",
      "outputs": [],
      "stateMutability": "nonpayable",
      "type": "function"
    }
  ],
  "bytecode": "0x60806040523480156200001157600080fd5b506040518060400160405280601281526020017f4b727970746f2050756e6b7320546f6b656e00000000000000000000000000008152506040518060400160405280600381526020017f4b50540000000000000000000000000000000000000000000000000000000000815250816003908051906020019062000096929190620001a6565b508060049080519060200190620000af929190620001a6565b505050620000d2620000c6620000d860201b60201c565b620000e060201b60201c565b620002bb565b600033905090565b6000600560009054906101000a900473ffffffffffffffffffffffffffffffffffffffff16905081600560006101000a81548173ffffffffffffffffffffffffffffffffffffffff021916908373ffffffffffffffffffffffffffffffffffffffff1602179055508173ffffffffffffffffffffffffffffffffffffffff168173ffffffffffffffffffffffffffffffffffffffff167f8be0079c531659141344cd1fd0a4f28419497f9722a3daafe3b4186f6b6457e060405160405180910390a35050565b828054620001b49062000256565b90600052602060002090601f016020900481019282620001d8576000855562000224565b82601f10620001f357805160ff191683800117855562000224565b8280016001018555821562000224579182015b828111156200022357825182559160200191906001019062000206565b5b50905062000233919062000237565b5090565b5b808211156200025257600081600090555060010162000238565b5090565b600060028204905060018216806200026f57607f821691505b602082108114156200028657620002856200028c565b5b50919050565b7f4e487b7100000000000000000000000000000000000000000000000000000000600052602260045260246000fd5b611e8480620002cb6000396000f3fe6080604052600436106101095760003560e01c8063715018a611610095578063a457c2d711610064578063a457c2d71461036b578063a9059cbb146103a8578063dd62ed3e146103e5578063e0dba60f14610422578063f2fde38b1461043e57610109565b8063715018a6146102d557806379cc6790146102ec5780638da5cb5b1461031557806395d89b411461034057610109565b8063313ce567116100dc578063313ce567146101de578063395093511461020957806340c10f191461024657806342966c681461026f57806370a082311461029857610109565b806306fdde031461010e578063095ea7b31461013957806318160ddd1461017657806323b872dd146101a1575b600080fd5b34801561011a57600080fd5b50610123610467565b604051610130919061171b565b60405180910390f35b34801561014557600080fd5b50610160600480360381019061015b919061145f565b6104f9565b60405161016d9190611700565b60405180910390f35b34801561018257600080fd5b5061018b61051c565b60405161019891906118bd565b60405180910390f35b3480156101ad57600080fd5b506101c860048036038101906101c391906113cc565b610526565b6040516101d59190611700565b60405180910390f35b3480156101ea57600080fd5b506101f3610555565b60405161020091906118d8565b60405180910390f35b34801561021557600080fd5b50610230600480360381019061022b919061145f565b61055e565b60405161023d9190611700565b60405180910390f35b34801561025257600080fd5b5061026d6004803603810190610268919061145f565b610595565b005b34801561027b57600080fd5b506102966004803603810190610291919061149f565b610626565b005b3480156102a457600080fd5b506102bf60048036038101906102ba919061135f565b61063a565b6040516102cc91906118bd565b60405180910390f35b3480156102e157600080fd5b506102ea610682565b005b3480156102f857600080fd5b50610313600480360381019061030e919061145f565b610696565b005b34801561032157600080fd5b5061032a6106f7565b60405161033791906116e5565b60405180910390f35b34801561034c57600080fd5b50610355610721565b604051610362919061171b565b60405180910390f35b34801561037757600080fd5b50610392600480360381019061038d919061145f565b6107b3565b60405161039f9190611700565b60405180910390f35b3480156103b457600080fd5b506103cf60048036038101906103ca919061145f565b61082a565b6040516103dc9190611700565b60405180910390f35b3480156103f157600080fd5b5061040c6004803603810190610407919061138c565b61084d565b60405161041991906118bd565b60405180910390f35b61043c6004803603810190610437919061141f565b6108d4565b005b34801561044a57600080fd5b506104656004803603810190610460919061135f565b610937565b005b60606003805461047690611a21565b80601f01602080910402602001604051908101604052809291908181526020018280546104a290611a21565b80156104ef5780601f106104c4576101008083540402835291602001916104ef565b820191906000526020600020905b8154815290600101906020018083116104d257829003601f168201915b5050505050905090565b6000806105046109bb565b90506105118185856109c3565b600191505092915050565b6000600254905090565b6000806105316109bb565b905061053e858285610b8e565b610549858585610c1a565b60019150509392505050565b60006012905090565b6000806105696109bb565b905061058a81858561057b858961084d565b610585919061190f565b6109c3565b600191505092915050565b600660003373ffffffffffffffffffffffffffffffffffffffff1673ffffffffffffffffffffffffffffffffffffffff16815260200190815260200160002060009054906101000a900460ff16610618576040517f87ec303800000000000000000000000000000000000000000000000000000000815260040160405180910390fd5b6106228282610e9b565b5050565b6106376106316109bb565b82610ffb565b50565b60008060008373ffffffffffffffffffffffffffffffffffffffff1673ffffffffffffffffffffffffffffffffffffffff168152602001908152602001600020549050919050565b61068a6111d2565b6106946000611250565b565b600660003373ffffffffffffffffffffffffffffffffffffffff1673ffffffffffffffffffffffffffffffffffffffff16815260200190815260200160002060009054906101000a900460ff16156106f3576106f28282610ffb565b5b5050565b6000600560009054906101000a900473ffffffffffffffffffffffffffffffffffffffff16905090565b60606004805461073090611a21565b80601f016020809104026020016040519081016040528092919081815260200182805461075c90611a21565b80156107a95780601f1061077e576101008083540402835291602001916107a9565b820191906000526020600020905b81548152906001019060200180831161078c57829003601f168201915b5050505050905090565b6000806107be6109bb565b905060006107cc828661084d565b905083811015610811576040517f08c379a00000000000000000000000000000000000000000000000000000000081526004016108089061187d565b60405180910390fd5b61081e82868684036109c3565b60019250505092915050565b6000806108356109bb565b9050610842818585610c1a565b600191505092915050565b6000600160008473ffffffffffffffffffffffffffffffffffffffff1673ffffffffffffffffffffffffffffffffffffffff16815260200190815260200160002060008373ffffffffffffffffffffffffffffffffffffffff1673ffffffffffffffffffffffffffffffffffffffff16815260200190815260200160002054905092915050565b6108dc6111d2565b80600660008473ffffffffffffffffffffffffffffffffffffffff1673ffffffffffffffffffffffffffffffffffffffff16815260200190815260200160002060006101000a81548160ff0219169083151502179055505050565b61093f6111d2565b600073ffffffffffffffffffffffffffffffffffffffff168173ffffffffffffffffffffffffffffffffffffffff1614156109af576040517f08c379a00000000000000000000000000000000000000000000000000000000081526004016109a69061177d565b60405180910390fd5b6109b881611250565b50565b600033905090565b600073ffffffffffffffffffffffffffffffffffffffff168373ffffffffffffffffffffffffffffffffffffffff161415610a33576040517f08c379a0000000000000000000000000000000000000000000000000000000008152600401610a2a9061185d565b60405180910390fd5b600073ffffffffffffffffffffffffffffffffffffffff168273ffffffffffffffffffffffffffffffffffffffff161415610aa3576040517f08c379a0000000000000000000000000000000000000000000000000000000008152600401610a9a9061179d565b60405180910390fd5b80600160008573ffffffffffffffffffffffffffffffffffffffff1673ffffffffffffffffffffffffffffffffffffffff16815260200190815260200160002060008473ffffffffffffffffffffffffffffffffffffffff1673ffffffffffffffffffffffffffffffffffffffff168152602001908152602001600020819055508173ffffffffffffffffffffffffffffffffffffffff168373ffffffffffffffffffffffffffffffffffffffff167f8c5be1e5ebec7d5bd14f71427d1e84f3dd0314c0f7b2291e5b200ac8c7c3b92583604051610b8191906118bd565b60405180910390a3505050565b6000610b9a848461084d565b90507fffffffffffffffffffffffffffffffffffffffffffffffffffffffffffffffff8114610c145781811015610c06576040517f08c379a0000000000000000000000000000000000000000000000000000000008152600401610bfd906117bd565b60405180910390fd5b610c1384848484036109c3565b5b50505050565b600073ffffffffffffffffffffffffffffffffffffffff168373ffffffffffffffffffffffffffffffffffffffff161415610c8a576040517f08c379a0000000000000000000000000000000000000000000000000000000008152600401610c819061183d565b60405180910390fd5b600073ffffffffffffffffffffffffffffffffffffffff168273ffffffffffffffffffffffffffffffffffffffff161415610cfa576040517f08c379a0000000000000000000000000000000000000000000000000000000008152600401610cf19061173d565b60405180910390fd5b610d05838383611316565b60008060008573ffffffffffffffffffffffffffffffffffffffff1673ffffffffffffffffffffffffffffffffffffffff16815260200190815260200160002054905081811015610d8b576040517f08c379a0000000000000000000000000000000000000000000000000000000008152600401610d82906117dd565b60405180910390fd5b8181036000808673ffffffffffffffffffffffffffffffffffffffff1673ffffffffffffffffffffffffffffffffffffffff16815260200190815260200160002081905550816000808573ffffffffffffffffffffffffffffffffffffffff1673ffffffffffffffffffffffffffffffffffffffff1681526020019081526020016000206000828254610e1e919061190f565b925050819055508273ffffffffffffffffffffffffffffffffffffffff168473ffffffffffffffffffffffffffffffffffffffff167fddf252ad1be2c89b69c2b068fc378daa952ba7f163c4a11628f55a4df523b3ef84604051610e8291906118bd565b60405180910390a3610e9584848461131b565b50505050565b600073ffffffffffffffffffffffffffffffffffffffff168273ffffffffffffffffffffffffffffffffffffffff161415610f0b576040517f08c379a0000000000000000000000000000000000000000000000000000000008152600401610f029061189d565b60405180910390fd5b610f1760008383611316565b8060026000828254610f29919061190f565b92505081905550806000808473ffffffffffffffffffffffffffffffffffffffff1673ffffffffffffffffffffffffffffffffffffffff1681526020019081526020016000206000828254610f7e919061190f565b925050819055508173ffffffffffffffffffffffffffffffffffffffff16600073ffffffffffffffffffffffffffffffffffffffff167fddf252ad1be2c89b69c2b068fc378daa952ba7f163c4a11628f55a4df523b3ef83604051610fe391906118bd565b60405180910390a3610ff76000838361131b565b5050565b600073ffffffffffffffffffffffffffffffffffffffff168273ffffffffffffffffffffffffffffffffffffffff16141561106b576040517f08c379a00000000000000000000000000000000000000000000000000000000081526004016110629061181d565b60405180910390fd5b61107782600083611316565b60008060008473ffffffffffffffffffffffffffffffffffffffff1673ffffffffffffffffffffffffffffffffffffffff168152602001908152602001600020549050818110156110fd576040517f08c379a00000000000000000000000000000000000000000000000000000000081526004016110f49061175d565b60405180910390fd5b8181036000808573ffffffffffffffffffffffffffffffffffffffff1673ffffffffffffffffffffffffffffffffffffffff1681526020019081526020016000208190555081600260008282546111549190611965565b92505081905550600073ffffffffffffffffffffffffffffffffffffffff168373ffffffffffffffffffffffffffffffffffffffff167fddf252ad1be2c89b69c2b068fc378daa952ba7f163c4a11628f55a4df523b3ef846040516111b991906118bd565b60405180910390a36111cd8360008461131b565b505050565b6111da6109bb565b73ffffffffffffffffffffffffffffffffffffffff166111f86106f7565b73ffffffffffffffffffffffffffffffffffffffff161461124e576040517f08c379a0000000000000000000000000000000000000000000000000000000008152600401611245906117fd565b60405180910390fd5b565b6000600560009054906101000a900473ffffffffffffffffffffffffffffffffffffffff16905081600560006101000a81548173ffffffffffffffffffffffffffffffffffffffff021916908373ffffffffffffffffffffffffffffffffffffffff1602179055508173ffffffffffffffffffffffffffffffffffffffff168173ffffffffffffffffffffffffffffffffffffffff167f8be0079c531659141344cd1fd0a4f28419497f9722a3daafe3b4186f6b6457e060405160405180910390a35050565b505050565b505050565b60008135905061132f81611e09565b92915050565b60008135905061134481611e20565b92915050565b60008135905061135981611e37565b92915050565b60006020828403121561137557611374611ab1565b5b600061138384828501611320565b91505092915050565b600080604083850312156113a3576113a2611ab1565b5b60006113b185828601611320565b92505060206113c285828601611320565b9150509250929050565b6000806000606084860312156113e5576113e4611ab1565b5b60006113f386828701611320565b935050602061140486828701611320565b92505060406114158682870161134a565b9150509250925092565b6000806040838503121561143657611435611ab1565b5b600061144485828601611320565b925050602061145585828601611335565b9150509250929050565b6000806040838503121561147657611475611ab1565b5b600061148485828601611320565b92505060206114958582860161134a565b9150509250929050565b6000602082840312156114b5576114b4611ab1565b5b60006114c38482850161134a565b91505092915050565b6114d581611999565b82525050565b6114e4816119ab565b82525050565b60006114f5826118f3565b6114ff81856118fe565b935061150f8185602086016119ee565b61151881611ab6565b840191505092915050565b60006115306023836118fe565b915061153b82611ac7565b604082019050919050565b60006115536022836118fe565b915061155e82611b16565b604082019050919050565b60006115766026836118fe565b915061158182611b65565b604082019050919050565b60006115996022836118fe565b91506115a482611bb4565b604082019050919050565b60006115bc601d836118fe565b91506115c782611c03565b602082019050919050565b60006115df6026836118fe565b91506115ea82611c2c565b604082019050919050565b60006116026020836118fe565b915061160d82611c7b565b602082019050919050565b60006116256021836118fe565b915061163082611ca4565b604082019050919050565b60006116486025836118fe565b915061165382611cf3565b604082019050919050565b600061166b6024836118fe565b915061167682611d42565b604082019050919050565b600061168e6025836118fe565b915061169982611d91565b604082019050919050565b60006116b1601f836118fe565b91506116bc82611de0565b602082019050919050565b6116d0816119d7565b82525050565b6116df816119e1565b82525050565b60006020820190506116fa60008301846114cc565b92915050565b600060208201905061171560008301846114db565b92915050565b6000602082019050818103600083015261173581846114ea565b905092915050565b6000602082019050818103600083015261175681611523565b9050919050565b6000602082019050818103600083015261177681611546565b9050919050565b6000602082019050818103600083015261179681611569565b9050919050565b600060208201905081810360008301526117b68161158c565b9050919050565b600060208201905081810360008301526117d6816115af565b9050919050565b600060208201905081810360008301526117f6816115d2565b9050919050565b60006020820190508181036000830152611816816115f5565b9050919050565b6000602082019050818103600083015261183681611618565b9050919050565b600060208201905081810360008301526118568161163b565b9050919050565b600060208201905081810360008301526118768161165e565b9050919050565b6000602082019050818103600083015261189681611681565b9050919050565b600060208201905081810360008301526118b6816116a4565b9050919050565b60006020820190506118d260008301846116c7565b92915050565b60006020820190506118ed60008301846116d6565b92915050565b600081519050919050565b600082825260208201905092915050565b600061191a826119d7565b9150611925836119d7565b9250827fffffffffffffffffffffffffffffffffffffffffffffffffffffffffffffffff0382111561195a57611959611a53565b5b828201905092915050565b6000611970826119d7565b915061197b836119d7565b92508282101561198e5761198d611a53565b5b828203905092915050565b60006119a4826119b7565b9050919050565b60008115159050919050565b600073ffffffffffffffffffffffffffffffffffffffff82169050919050565b6000819050919050565b600060ff82169050919050565b60005b83811015611a0c5780820151818401526020810190506119f1565b83811115611a1b576000848401525b50505050565b60006002820490506001821680611a3957607f821691505b60208210811415611a4d57611a4c611a82565b5b50919050565b7f4e487b7100000000000000000000000000000000000000000000000000000000600052601160045260246000fd5b7f4e487b7100000000000000000000000000000000000000000000000000000000600052602260045260246000fd5b600080fd5b6000601f19601f8301169050919050565b7f45524332303a207472616e7366657220746f20746865207a65726f206164647260008201527f6573730000000000000000000000000000000000000000000000000000000000602082015250565b7f45524332303a206275726e20616d6f756e7420657863656564732062616c616e60008201527f6365000000000000000000000000000000000000000000000000000000000000602082015250565b7f4f776e61626c653a206e6577206f776e657220697320746865207a65726f206160008201527f6464726573730000000000000000000000000000000000000000000000000000602082015250565b7f45524332303a20617070726f766520746f20746865207a65726f20616464726560008201527f7373000000000000000000000000000000000000000000000000000000000000602082015250565b7f45524332303a20696e73756666696369656e7420616c6c6f77616e6365000000600082015250565b7f45524332303a207472616e7366657220616d6f756e742065786365656473206260008201527f616c616e63650000000000000000000000000000000000000000000000000000602082015250565b7f4f776e61626c653a2063616c6c6572206973206e6f7420746865206f776e6572600082015250565b7f45524332303a206275726e2066726f6d20746865207a65726f2061646472657360008201527f7300000000000000000000000000000000000000000000000000000000000000602082015250565b7f45524332303a207472616e736665722066726f6d20746865207a65726f20616460008201527f6472657373000000000000000000000000000000000000000000000000000000602082015250565b7f45524332303a20617070726f76652066726f6d20746865207a65726f2061646460008201527f7265737300000000000000000000000000000000000000000000000000000000602082015250565b7f45524332303a2064656372656173656420616c6c6f77616e63652062656c6f7760008201527f207a65726f000000000000000000000000000000000000000000000000000000602082015250565b7f45524332303a206d696e7420746f20746865207a65726f206164647265737300600082015250565b611e1281611999565b8114611e1d57600080fd5b50565b611e29816119ab565b8114611e3457600080fd5b50565b611e40816119d7565b8114611e4b57600080fd5b5056fea26469706673582212206385f6c8bac8fa14d51e0b6f1d333199dc80a0a6ec238e633bb2144f8a8339d864736f6c63430008070033",
  "linkReferences": {},
  "deployedLinkReferences": {}
}