{
  "_format": "hh-sol-artifact-1",
  "contractName": "KryptoPunksToken",
  "sourceName": "contracts/KryptoPunksToken.sol",
  "abi": [
    {
      "inputs": [],
      "stateMutability": "nonpayable",
      "type": "constructor"
    },
    {
      "anonymous": false,
      "inputs": [
        {
          "indexed": true,
          "internalType": "address",
          "name": "owner",
          "type": "address"
        },
        {
          "indexed": true,
          "internalType": "address",
          "name": "spender",
          "type": "address"
        },
        {
          "indexed": false,
          "internalType": "uint256",
          "name": "value",
          "type": "uint256"
        }
      ],
      "name": "Approval",
      "type": "event"
    },
    {
      "anonymous": false,
      "inputs": [
        {
          "indexed": true,
          "internalType": "address",
          "name": "previousOwner",
          "type": "address"
        },
        {
          "indexed": true,
          "internalType": "address",
          "name": "newOwner",
          "type": "address"
        }
      ],
      "name": "OwnershipTransferred",
      "type": "event"
    },
    {
      "anonymous": false,
      "inputs": [
        {
          "indexed": true,
          "internalType": "address",
          "name": "from",
          "type": "address"
        },
        {
          "indexed": true,
          "internalType": "address",
          "name": "to",
          "type": "address"
        },
        {
          "indexed": false,
          "internalType": "uint256",
          "name": "value",
          "type": "uint256"
        }
      ],
      "name": "Transfer",
      "type": "event"
    },
    {
      "inputs": [
        {
          "internalType": "address",
          "name": "owner",
          "type": "address"
        },
        {
          "internalType": "address",
          "name": "spender",
          "type": "address"
        }
      ],
      "name": "allowance",
      "outputs": [
        {
          "internalType": "uint256",
          "name": "",
          "type": "uint256"
        }
      ],
      "stateMutability": "view",
      "type": "function"
    },
    {
      "inputs": [
        {
          "internalType": "address",
          "name": "spender",
          "type": "address"
        },
        {
          "internalType": "uint256",
          "name": "amount",
          "type": "uint256"
        }
      ],
      "name": "approve",
      "outputs": [
        {
          "internalType": "bool",
          "name": "",
          "type": "bool"
        }
      ],
      "stateMutability": "nonpayable",
      "type": "function"
    },
    {
      "inputs": [
        {
          "internalType": "address",
          "name": "account",
          "type": "address"
        }
      ],
      "name": "balanceOf",
      "outputs": [
        {
          "internalType": "uint256",
          "name": "",
          "type": "uint256"
        }
      ],
      "stateMutability": "view",
      "type": "function"
    },
    {
      "inputs": [
        {
          "internalType": "uint256",
          "name": "amount",
          "type": "uint256"
        }
      ],
      "name": "burn",
      "outputs": [],
      "stateMutability": "nonpayable",
      "type": "function"
    },
    {
      "inputs": [
        {
          "internalType": "address",
          "name": "account",
          "type": "address"
        },
        {
          "internalType": "uint256",
          "name": "amount",
          "type": "uint256"
        }
      ],
      "name": "burnFrom",
      "outputs": [],
      "stateMutability": "nonpayable",
      "type": "function"
    },
    {
      "inputs": [],
      "name": "decimals",
      "outputs": [
        {
          "internalType": "uint8",
          "name": "",
          "type": "uint8"
        }
      ],
      "stateMutability": "view",
      "type": "function"
    },
    {
      "inputs": [
        {
          "internalType": "address",
          "name": "spender",
          "type": "address"
        },
        {
          "internalType": "uint256",
          "name": "subtractedValue",
          "type": "uint256"
        }
      ],
      "name": "decreaseAllowance",
      "outputs": [
        {
          "internalType": "bool",
          "name": "",
          "type": "bool"
        }
      ],
      "stateMutability": "nonpayable",
      "type": "function"
    },
    {
      "inputs": [
        {
          "internalType": "address",
          "name": "spender",
          "type": "address"
        },
        {
          "internalType": "uint256",
          "name": "addedValue",
          "type": "uint256"
        }
      ],
      "name": "increaseAllowance",
      "outputs": [
        {
          "internalType": "bool",
          "name": "",
          "type": "bool"
        }
      ],
      "stateMutability": "nonpayable",
      "type": "function"
    },
    {
      "inputs": [
        {
          "internalType": "address",
          "name": "to",
          "type": "address"
        },
        {
          "internalType": "uint256",
          "name": "amount",
          "type": "uint256"
        }
      ],
      "name": "mint",
      "outputs": [],
      "stateMutability": "nonpayable",
      "type": "function"
    },
    {
      "inputs": [],
      "name": "name",
      "outputs": [
        {
          "internalType": "string",
          "name": "",
          "type": "string"
        }
      ],
      "stateMutability": "view",
      "type": "function"
    },
    {
      "inputs": [],
      "name": "owner",
      "outputs": [
        {
          "internalType": "address",
          "name": "",
          "type": "address"
        }
      ],
      "stateMutability": "view",
      "type": "function"
    },
    {
      "inputs": [],
      "name": "renounceOwnership",
      "outputs": [],
      "stateMutability": "nonpayable",
      "type": "function"
    },
    {
      "inputs": [
        {
          "internalType": "address",
          "name": "controller",
          "type": "address"
        },
        {
          "internalType": "bool",
          "name": "_state",
          "type": "bool"
        }
      ],
      "name": "setController",
      "outputs": [],
      "stateMutability": "payable",
      "type": "function"
    },
    {
      "inputs": [],
      "name": "symbol",
      "outputs": [
        {
          "internalType": "string",
          "name": "",
          "type": "string"
        }
      ],
      "stateMutability": "view",
      "type": "function"
    },
    {
      "inputs": [],
      "name": "totalSupply",
      "outputs": [
        {
          "internalType": "uint256",
          "name": "",
          "type": "uint256"
        }
      ],
      "stateMutability": "view",
      "type": "function"
    },
    {
      "inputs": [
        {
          "internalType": "address",
          "name": "to",
          "type": "address"
        },
        {
          "internalType": "uint256",
          "name": "amount",
          "type": "uint256"
        }
      ],
      "name": "transfer",
      "outputs": [
        {
          "internalType": "bool",
          "name": "",
          "type": "bool"
        }
      ],
      "stateMutability": "nonpayable",
      "type": "function"
    },
    {
      "inputs": [
        {
          "internalType": "address",
          "name": "from",
          "type": "address"
        },
        {
          "internalType": "address",
          "name": "to",
          "type": "address"
        },
        {
          "internalType": "uint256",
          "name": "amount",
          "type": "uint256"
        }
      ],
      "name": "transferFrom",
      "outputs": [
        {
          "internalType": "bool",
          "name": "",
          "type": "bool"
        }
      ],
      "stateMutability": "nonpayable",
      "type": "function"
    },
    {
      "inputs": [
        {
          "internalType": "address",
          "name": "newOwner",
          "type": "address"
        }
      ],
      "name": "transferOwnership",
      "outputs": [],
      "stateMutability": "nonpayable",
      "type": "function"
    }
  ],
  "bytecode": "0x60806040523480156200001157600080fd5b506040518060400160405280601281526020017f4b727970746f2050756e6b7320546f6b656e00000000000000000000000000008152506040518060400160405280600381526020017f4b50540000000000000000000000000000000000000000000000000000000000815250816003908051906020019062000096929190620001a6565b508060049080519060200190620000af929190620001a6565b505050620000d2620000c6620000d860201b60201c565b620000e060201b60201c565b620002bb565b600033905090565b6000600560009054906101000a900473ffffffffffffffffffffffffffffffffffffffff16905081600560006101000a81548173ffffffffffffffffffffffffffffffffffffffff021916908373ffffffffffffffffffffffffffffffffffffffff1602179055508173ffffffffffffffffffffffffffffffffffffffff168173ffffffffffffffffffffffffffffffffffffffff167f8be0079c531659141344cd1fd0a4f28419497f9722a3daafe3b4186f6b6457e060405160405180910390a35050565b828054620001b49062000256565b90600052602060002090601f016020900481019282620001d8576000855562000224565b82601f10620001f357805160ff191683800117855562000224565b8280016001018555821562000224579182015b828111156200022357825182559160200191906001019062000206565b5b50905062000233919062000237565b5090565b5b808211156200025257600081600090555060010162000238565b5090565b600060028204905060018216806200026f57607f821691505b602082108114156200028657620002856200028c565b5b50919050565b7f4e487b7100000000000000000000000000000000000000000000000000000000600052602260045260246000fd5b611ef980620002cb6000396000f3fe6080604052600436106101095760003560e01c8063715018a611610095578063a457c2d711610064578063a457c2d71461036b578063a9059cbb146103a8578063dd62ed3e146103e5578063e0dba60f14610422578063f2fde38b1461043e57610109565b8063715018a6146102d557806379cc6790146102ec5780638da5cb5b1461031557806395d89b411461034057610109565b8063313ce567116100dc578063313ce567146101de578063395093511461020957806340c10f191461024657806342966c681461026f57806370a082311461029857610109565b806306fdde031461010e578063095ea7b31461013957806318160ddd1461017657806323b872dd146101a1575b600080fd5b34801561011a57600080fd5b50610123610467565b6040516101309190611747565b60405180910390f35b34801561014557600080fd5b50610160600480360381019061015b9190611468565b6104f9565b60405161016d919061172c565b60405180910390f35b34801561018257600080fd5b5061018b61051c565b6040516101989190611909565b60405180910390f35b3480156101ad57600080fd5b506101c860048036038101906101c391906113d5565b610526565b6040516101d5919061172c565b60405180910390f35b3480156101ea57600080fd5b506101f3610555565b6040516102009190611924565b60405180910390f35b34801561021557600080fd5b50610230600480360381019061022b9190611468565b61055e565b60405161023d919061172c565b60405180910390f35b34801561025257600080fd5b5061026d60048036038101906102689190611468565b610595565b005b34801561027b57600080fd5b50610296600480360381019061029191906114a8565b61062f565b005b3480156102a457600080fd5b506102bf60048036038101906102ba9190611368565b610643565b6040516102cc9190611909565b60405180910390f35b3480156102e157600080fd5b506102ea61068b565b005b3480156102f857600080fd5b50610313600480360381019061030e9190611468565b61069f565b005b34801561032157600080fd5b5061032a610700565b6040516103379190611711565b60405180910390f35b34801561034c57600080fd5b5061035561072a565b6040516103629190611747565b60405180910390f35b34801561037757600080fd5b50610392600480360381019061038d9190611468565b6107bc565b60405161039f919061172c565b60405180910390f35b3480156103b457600080fd5b506103cf60048036038101906103ca9190611468565b610833565b6040516103dc919061172c565b60405180910390f35b3480156103f157600080fd5b5061040c60048036038101906104079190611395565b610856565b6040516104199190611909565b60405180910390f35b61043c60048036038101906104379190611428565b6108dd565b005b34801561044a57600080fd5b5061046560048036038101906104609190611368565b610940565b005b60606003805461047690611a6d565b80601f01602080910402602001604051908101604052809291908181526020018280546104a290611a6d565b80156104ef5780601f106104c4576101008083540402835291602001916104ef565b820191906000526020600020905b8154815290600101906020018083116104d257829003601f168201915b5050505050905090565b6000806105046109c4565b90506105118185856109cc565b600191505092915050565b6000600254905090565b6000806105316109c4565b905061053e858285610b97565b610549858585610c23565b60019150509392505050565b60006012905090565b6000806105696109c4565b905061058a81858561057b8589610856565b610585919061195b565b6109cc565b600191505092915050565b600660003373ffffffffffffffffffffffffffffffffffffffff1673ffffffffffffffffffffffffffffffffffffffff16815260200190815260200160002060009054906101000a900460ff16610621576040517f08c379a000000000000000000000000000000000000000000000000000000000815260040161061890611829565b60405180910390fd5b61062b8282610ea4565b5050565b61064061063a6109c4565b82611004565b50565b60008060008373ffffffffffffffffffffffffffffffffffffffff1673ffffffffffffffffffffffffffffffffffffffff168152602001908152602001600020549050919050565b6106936111db565b61069d6000611259565b565b600660003373ffffffffffffffffffffffffffffffffffffffff1673ffffffffffffffffffffffffffffffffffffffff16815260200190815260200160002060009054906101000a900460ff16156106fc576106fb8282611004565b5b5050565b6000600560009054906101000a900473ffffffffffffffffffffffffffffffffffffffff16905090565b60606004805461073990611a6d565b80601f016020809104026020016040519081016040528092919081815260200182805461076590611a6d565b80156107b25780601f10610787576101008083540402835291602001916107b2565b820191906000526020600020905b81548152906001019060200180831161079557829003601f168201915b5050505050905090565b6000806107c76109c4565b905060006107d58286610856565b90508381101561081a576040517f08c379a0000000000000000000000000000000000000000000000000000000008152600401610811906118c9565b60405180910390fd5b61082782868684036109cc565b60019250505092915050565b60008061083e6109c4565b905061084b818585610c23565b600191505092915050565b6000600160008473ffffffffffffffffffffffffffffffffffffffff1673ffffffffffffffffffffffffffffffffffffffff16815260200190815260200160002060008373ffffffffffffffffffffffffffffffffffffffff1673ffffffffffffffffffffffffffffffffffffffff16815260200190815260200160002054905092915050565b6108e56111db565b80600660008473ffffffffffffffffffffffffffffffffffffffff1673ffffffffffffffffffffffffffffffffffffffff16815260200190815260200160002060006101000a81548160ff0219169083151502179055505050565b6109486111db565b600073ffffffffffffffffffffffffffffffffffffffff168173ffffffffffffffffffffffffffffffffffffffff1614156109b8576040517f08c379a00000000000000000000000000000000000000000000000000000000081526004016109af906117a9565b60405180910390fd5b6109c181611259565b50565b600033905090565b600073ffffffffffffffffffffffffffffffffffffffff168373ffffffffffffffffffffffffffffffffffffffff161415610a3c576040517f08c379a0000000000000000000000000000000000000000000000000000000008152600401610a33906118a9565b60405180910390fd5b600073ffffffffffffffffffffffffffffffffffffffff168273ffffffffffffffffffffffffffffffffffffffff161415610aac576040517f08c379a0000000000000000000000000000000000000000000000000000000008152600401610aa3906117c9565b60405180910390fd5b80600160008573ffffffffffffffffffffffffffffffffffffffff1673ffffffffffffffffffffffffffffffffffffffff16815260200190815260200160002060008473ffffffffffffffffffffffffffffffffffffffff1673ffffffffffffffffffffffffffffffffffffffff168152602001908152602001600020819055508173ffffffffffffffffffffffffffffffffffffffff168373ffffffffffffffffffffffffffffffffffffffff167f8c5be1e5ebec7d5bd14f71427d1e84f3dd0314c0f7b2291e5b200ac8c7c3b92583604051610b8a9190611909565b60405180910390a3505050565b6000610ba38484610856565b90507fffffffffffffffffffffffffffffffffffffffffffffffffffffffffffffffff8114610c1d5781811015610c0f576040517f08c379a0000000000000000000000000000000000000000000000000000000008152600401610c06906117e9565b60405180910390fd5b610c1c84848484036109cc565b5b50505050565b600073ffffffffffffffffffffffffffffffffffffffff168373ffffffffffffffffffffffffffffffffffffffff161415610c93576040517f08c379a0000000000000000000000000000000000000000000000000000000008152600401610c8a90611889565b60405180910390fd5b600073ffffffffffffffffffffffffffffffffffffffff168273ffffffffffffffffffffffffffffffffffffffff161415610d03576040517f08c379a0000000000000000000000000000000000000000000000000000000008152600401610cfa90611769565b60405180910390fd5b610d0e83838361131f565b60008060008573ffffffffffffffffffffffffffffffffffffffff1673ffffffffffffffffffffffffffffffffffffffff16815260200190815260200160002054905081811015610d94576040517f08c379a0000000000000000000000000000000000000000000000000000000008152600401610d8b90611809565b60405180910390fd5b8181036000808673ffffffffffffffffffffffffffffffffffffffff1673ffffffffffffffffffffffffffffffffffffffff16815260200190815260200160002081905550816000808573ffffffffffffffffffffffffffffffffffffffff1673ffffffffffffffffffffffffffffffffffffffff1681526020019081526020016000206000828254610e27919061195b565b925050819055508273ffffffffffffffffffffffffffffffffffffffff168473ffffffffffffffffffffffffffffffffffffffff167fddf252ad1be2c89b69c2b068fc378daa952ba7f163c4a11628f55a4df523b3ef84604051610e8b9190611909565b60405180910390a3610e9e848484611324565b50505050565b600073ffffffffffffffffffffffffffffffffffffffff168273ffffffffffffffffffffffffffffffffffffffff161415610f14576040517f08c379a0000000000000000000000000000000000000000000000000000000008152600401610f0b906118e9565b60405180910390fd5b610f206000838361131f565b8060026000828254610f32919061195b565b92505081905550806000808473ffffffffffffffffffffffffffffffffffffffff1673ffffffffffffffffffffffffffffffffffffffff1681526020019081526020016000206000828254610f87919061195b565b925050819055508173ffffffffffffffffffffffffffffffffffffffff16600073ffffffffffffffffffffffffffffffffffffffff167fddf252ad1be2c89b69c2b068fc378daa952ba7f163c4a11628f55a4df523b3ef83604051610fec9190611909565b60405180910390a361100060008383611324565b5050565b600073ffffffffffffffffffffffffffffffffffffffff168273ffffffffffffffffffffffffffffffffffffffff161415611074576040517f08c379a000000000000000000000000000000000000000000000000000000000815260040161106b90611869565b60405180910390fd5b6110808260008361131f565b60008060008473ffffffffffffffffffffffffffffffffffffffff1673ffffffffffffffffffffffffffffffffffffffff16815260200190815260200160002054905081811015611106576040517f08c379a00000000000000000000000000000000000000000000000000000000081526004016110fd90611789565b60405180910390fd5b8181036000808573ffffffffffffffffffffffffffffffffffffffff1673ffffffffffffffffffffffffffffffffffffffff16815260200190815260200160002081905550816002600082825461115d91906119b1565b92505081905550600073ffffffffffffffffffffffffffffffffffffffff168373ffffffffffffffffffffffffffffffffffffffff167fddf252ad1be2c89b69c2b068fc378daa952ba7f163c4a11628f55a4df523b3ef846040516111c29190611909565b60405180910390a36111d683600084611324565b505050565b6111e36109c4565b73ffffffffffffffffffffffffffffffffffffffff16611201610700565b73ffffffffffffffffffffffffffffffffffffffff1614611257576040517f08c379a000000000000000000000000000000000000000000000000000000000815260040161124e90611849565b60405180910390fd5b565b6000600560009054906101000a900473ffffffffffffffffffffffffffffffffffffffff16905081600560006101000a81548173ffffffffffffffffffffffffffffffffffffffff021916908373ffffffffffffffffffffffffffffffffffffffff1602179055508173ffffffffffffffffffffffffffffffffffffffff168173ffffffffffffffffffffffffffffffffffffffff167f8be0079c531659141344cd1fd0a4f28419497f9722a3daafe3b4186f6b6457e060405160405180910390a35050565b505050565b505050565b60008135905061133881611e7e565b92915050565b60008135905061134d81611e95565b92915050565b60008135905061136281611eac565b92915050565b60006020828403121561137e5761137d611afd565b5b600061138c84828501611329565b91505092915050565b600080604083850312156113ac576113ab611afd565b5b60006113ba85828601611329565b92505060206113cb85828601611329565b9150509250929050565b6000806000606084860312156113ee576113ed611afd565b5b60006113fc86828701611329565b935050602061140d86828701611329565b925050604061141e86828701611353565b9150509250925092565b6000806040838503121561143f5761143e611afd565b5b600061144d85828601611329565b925050602061145e8582860161133e565b9150509250929050565b6000806040838503121561147f5761147e611afd565b5b600061148d85828601611329565b925050602061149e85828601611353565b9150509250929050565b6000602082840312156114be576114bd611afd565b5b60006114cc84828501611353565b91505092915050565b6114de816119e5565b82525050565b6114ed816119f7565b82525050565b60006114fe8261193f565b611508818561194a565b9350611518818560208601611a3a565b61152181611b02565b840191505092915050565b600061153960238361194a565b915061154482611b13565b604082019050919050565b600061155c60228361194a565b915061156782611b62565b604082019050919050565b600061157f60268361194a565b915061158a82611bb1565b604082019050919050565b60006115a260228361194a565b91506115ad82611c00565b604082019050919050565b60006115c5601d8361194a565b91506115d082611c4f565b602082019050919050565b60006115e860268361194a565b91506115f382611c78565b604082019050919050565b600061160b60198361194a565b915061161682611cc7565b602082019050919050565b600061162e60208361194a565b915061163982611cf0565b602082019050919050565b600061165160218361194a565b915061165c82611d19565b604082019050919050565b600061167460258361194a565b915061167f82611d68565b604082019050919050565b600061169760248361194a565b91506116a282611db7565b604082019050919050565b60006116ba60258361194a565b91506116c582611e06565b604082019050919050565b60006116dd601f8361194a565b91506116e882611e55565b602082019050919050565b6116fc81611a23565b82525050565b61170b81611a2d565b82525050565b600060208201905061172660008301846114d5565b92915050565b600060208201905061174160008301846114e4565b92915050565b6000602082019050818103600083015261176181846114f3565b905092915050565b600060208201905081810360008301526117828161152c565b9050919050565b600060208201905081810360008301526117a28161154f565b9050919050565b600060208201905081810360008301526117c281611572565b9050919050565b600060208201905081810360008301526117e281611595565b9050919050565b60006020820190508181036000830152611802816115b8565b9050919050565b60006020820190508181036000830152611822816115db565b9050919050565b60006020820190508181036000830152611842816115fe565b9050919050565b6000602082019050818103600083015261186281611621565b9050919050565b6000602082019050818103600083015261188281611644565b9050919050565b600060208201905081810360008301526118a281611667565b9050919050565b600060208201905081810360008301526118c28161168a565b9050919050565b600060208201905081810360008301526118e2816116ad565b9050919050565b60006020820190508181036000830152611902816116d0565b9050919050565b600060208201905061191e60008301846116f3565b92915050565b60006020820190506119396000830184611702565b92915050565b600081519050919050565b600082825260208201905092915050565b600061196682611a23565b915061197183611a23565b9250827fffffffffffffffffffffffffffffffffffffffffffffffffffffffffffffffff038211156119a6576119a5611a9f565b5b828201905092915050565b60006119bc82611a23565b91506119c783611a23565b9250828210156119da576119d9611a9f565b5b828203905092915050565b60006119f082611a03565b9050919050565b60008115159050919050565b600073ffffffffffffffffffffffffffffffffffffffff82169050919050565b6000819050919050565b600060ff82169050919050565b60005b83811015611a58578082015181840152602081019050611a3d565b83811115611a67576000848401525b50505050565b60006002820490506001821680611a8557607f821691505b60208210811415611a9957611a98611ace565b5b50919050565b7f4e487b7100000000000000000000000000000000000000000000000000000000600052601160045260246000fd5b7f4e487b7100000000000000000000000000000000000000000000000000000000600052602260045260246000fd5b600080fd5b6000601f19601f8301169050919050565b7f45524332303a207472616e7366657220746f20746865207a65726f206164647260008201527f6573730000000000000000000000000000000000000000000000000000000000602082015250565b7f45524332303a206275726e20616d6f756e7420657863656564732062616c616e60008201527f6365000000000000000000000000000000000000000000000000000000000000602082015250565b7f4f776e61626c653a206e6577206f776e657220697320746865207a65726f206160008201527f6464726573730000000000000000000000000000000000000000000000000000602082015250565b7f45524332303a20617070726f766520746f20746865207a65726f20616464726560008201527f7373000000000000000000000000000000000000000000000000000000000000602082015250565b7f45524332303a20696e73756666696369656e7420616c6c6f77616e6365000000600082015250565b7f45524332303a207472616e7366657220616d6f756e742065786365656473206260008201527f616c616e63650000000000000000000000000000000000000000000000000000602082015250565b7f4f6e6c7920636f6e74726f6c6c6572732063616e206d696e7400000000000000600082015250565b7f4f776e61626c653a2063616c6c6572206973206e6f7420746865206f776e6572600082015250565b7f45524332303a206275726e2066726f6d20746865207a65726f2061646472657360008201527f7300000000000000000000000000000000000000000000000000000000000000602082015250565b7f45524332303a207472616e736665722066726f6d20746865207a65726f20616460008201527f6472657373000000000000000000000000000000000000000000000000000000602082015250565b7f45524332303a20617070726f76652066726f6d20746865207a65726f2061646460008201527f7265737300000000000000000000000000000000000000000000000000000000602082015250565b7f45524332303a2064656372656173656420616c6c6f77616e63652062656c6f7760008201527f207a65726f000000000000000000000000000000000000000000000000000000602082015250565b7f45524332303a206d696e7420746f20746865207a65726f206164647265737300600082015250565b611e87816119e5565b8114611e9257600080fd5b50565b611e9e816119f7565b8114611ea957600080fd5b50565b611eb581611a23565b8114611ec057600080fd5b5056fea26469706673582212209b2cd49bf2fb5defdc3c759e98e8107c8373f50ef04755b6993785cfb69cae4b64736f6c63430008070033",
  "linkReferences": {},
  "deployedLinkReferences": {}
}